:020000040800F2
:100000000036002071520008D5EE00085D5200084D
:100010005D5200085D5200085D52000800000000BB
:100020000000000000000000000000002553000850
:100030005D52000800000000D1520008B9780008A5
:10004000A5540008A5540008A5540008A5540008AC
:10005000A5540008A5540008A5540008A55400089C
:10006000A5540008A5540008A5540008A55400088C
:10007000A5540008A5540008A5540008A55400087C
:10008000A5540008A5540008A5540008A55400086C
:10009000A5540008A5540008A5540008A55400085C
:1000A000A5540008A5540008A5540008A55400084C
:1000B000A5540008A5540008A5540008A55400083C
:1000C000A5540008A5540008A5540008A55400082C
:1000D000A5540008A5540008A5540008A55400081C
:1000E000A5540008A5540008A5540008A55400080C
:1000F000A5540008A5540008A5540008A5540008FC
:10010000A5540008A5540008A5540008A5540008EB
:10011000A5540008A5540008A5540008A5540008DB
:10012000A5540008A5540008A5540008A5540008CB
:10013000A5540008A5540008A5540008A5540008BB
:10014000A5540008A5540008A5540008A5540008AB
:10015000A5540008A5540008A5540008A55400089B
:10016000A5540008A5540008A5540008A55400088B
:10017000A5540008A5540008A5540008A55400087B
:10018000A5540008A5540008A5540008A55400086B
:10019000A5540008A5540008A5540008A55400085B
:1001A000A5540008A5540008A5540008A55400084B
:1001B000A5540008A5540008A5540008A55400083B
:0401C000A55400083A
:1002000090F800F06DE9024520F007016FF0000C56
:1002100010F0070491F820F040F049804FF00004FE
:100220006FF00700D1E9002391F840F000F10800D9
:1002300082FA4CF2A4FA8CF283FA4CF3A2FA8CF311
:100240004BBBD1E9022382FA4CF200F10800A4FA78
:100250008CF283FA4CF3A2FA8CF3E3B9D1E90423CC
:1002600082FA4CF200F10800A4FA8CF283FA4CF303
:10027000A2FA8CF37BB9D1E9062301F1200182FABD
:100280004CF200F10800A4FA8CF283FA4CF3A2FAC3
:100290008CF3002BC6D0002A04BF04301A4612BAD1
:1002A000B2FA82F2FDE8024500EBD2007047D1E9D4
:1002B000002304F00305C4F100004FEAC50514F063
:1002C000040F91F840F00CFA05F562EA05021CBF34
:1002D00063EA050362464FF00004A9E7000000004E
:1002E00001F0FF01102A2BDB10F0070F08D010F8E7
:1002F000013B013A8B422DD010F0070F42B3F6D1EB
:10030000F0B441EA012141EA014122F007047FF003
:1003100000070023F0E80256083C85EA010586EA5A
:10032000010685FA47F5A3FA87F586FA47F6A5FA96
:1003300087F68EB9EED1F0BC01F0FF0102F00702A2
:1003400032B110F8013B013A83EA010313B1F8D14D
:100350000020704701387047002D06BF354603382E
:10036000073815F0010F07D1013015F4807F02BF67
:10037000013015F4C03F0130F0BC0138704700BFB8
:10038000844641EA000313F003036DD1403A41D3A0
:1003900051F8043B40F8043B51F8043B40F8043B5F
:1003A00051F8043B40F8043B51F8043B40F8043B4F
:1003B00051F8043B40F8043B51F8043B40F8043B3F
:1003C00051F8043B40F8043B51F8043B40F8043B2F
:1003D00051F8043B40F8043B51F8043B40F8043B1F
:1003E00051F8043B40F8043B51F8043B40F8043B0F
:1003F00051F8043B40F8043B51F8043B40F8043BFF
:1004000051F8043B40F8043B51F8043B40F8043BEE
:10041000403ABDD2303211D351F8043B40F8043B8E
:1004200051F8043B40F8043B51F8043B40F8043BCE
:1004300051F8043B40F8043B103AEDD20C3205D39E
:1004400051F8043B40F8043B043AF9D2043208D096
:10045000D2071CBF11F8013B00F8013B01D30B8808
:1004600003806046704700BF082A13D38B078DD0E6
:1004700010F003038AD0C3F10403D21ADB071CBFB8
:1004800011F8013B00F8013B80D331F8023B20F822
:10049000023B7BE7043AD9D3013A11F8013B00F85B
:1004A000013BF9D20B7803704B7843708B788370E3
:1004B0006046704781F0004102E000BF83F00043D6
:1004C00030B54FEA41044FEA430594EA050F08BFEF
:1004D00090EA020F1FBF54EA000C55EA020C7FEAB3
:1004E000645C7FEA655C00F0E2804FEA5454D4EB30
:1004F0005555B8BF6D420CDD2C4480EA020281EAFA
:10050000030382EA000083EA010180EA020281EA31
:100510000303362D88BF30BD11F0004F4FEA013183
:100520004FF4801C4CEA113102D0404261EB410192
:1005300013F0004F4FEA03334CEA133302D0524218
:1005400063EB430394EA050F00F0A780A4F10104D4
:10055000D5F1200E0DDB02FA0EFC22FA05F280180E
:1005600041F1000103FA0EF2801843FA05F35941F4
:100570000EE0A5F120050EF1200E012A03FA0EFC73
:1005800028BF4CF0020C43FA05F3C01851EBE3719D
:1005900001F0004507D54FF0000EDCF1000C7EEBBA
:1005A00000006EEB0101B1F5801F1BD3B1F5001FF8
:1005B0000CD349085FEA30004FEA3C0C04F1010417
:1005C0004FEA445212F5800F80F09A80BCF1004F40
:1005D00008BF5FEA500C50F1000041EB045141EAC2
:1005E000050130BD5FEA4C0C404141EB0101013C8B
:1005F00028BFB1F5801FE9D291F0000F04BF01467A
:100600000020B1FA81F308BF2033A3F10B03B3F14B
:1006100020020CDA0C3208DD02F1140CC2F10C02DB
:1006200001FA0CF021FA02F10CE002F11402D8BF39
:10063000C2F1200C01FA02F120FA0CFCDCBF41EA05
:100640000C019040E41AA2BF01EB0451294330BDD4
:100650006FEA04041F3C1CDA0C340EDC04F11404B1
:10066000C4F1200220FA04F001FA02F340EA030088
:1006700021FA04F345EA030130BDC4F10C04C4F1CE
:10068000200220FA02F001FA04F340EA03002946AE
:1006900030BD21FA04F0294630BD94F0000F83F4F8
:1006A000801306BF81F480110134013D4EE77FEADB
:1006B000645C18BF7FEA655C29D094EA050F08BF27
:1006C00090EA020F05D054EA000C04BF1946104608
:1006D00030BD91EA030F1EBF0021002030BD5FEA4C
:1006E000545C05D14000494128BF41F0004130BD74
:1006F00014F580043CBF01F5801130BD01F00045C8
:1007000045F0FE4141F470014FF0000030BD7FEA3A
:10071000645C1ABF194610467FEA655C1CBF0B4635
:10072000024650EA013406BF52EA033591EA030F4C
:1007300041F4002130BD00BF90F0000F04BF002144
:10074000704730B54FF4806404F132044FF0000577
:100750004FF0000150E700BF90F0000F04BF0021F0
:10076000704730B54FF4806404F1320410F0004556
:1007700048BF40424FF000013EE700BF42004FEA51
:10078000E2014FEA31014FEA02701FBF12F07F43CE
:1007900093F07F4F81F06051704732F07F4208BF85
:1007A000704793F07F4F04BF41F40021704730B58C
:1007B0004FF4607401F0004521F000411CE700BFD8
:1007C00050EA010208BF704730B54FF000050AE05B
:1007D00050EA010208BF704730B511F0004502D55C
:1007E000404261EB41014FF4806404F132045FEA5E
:1007F000915C3FF4D8AE4FF003025FEADC0C18BF07
:1008000003325FEADC0C18BF033202EBDC02C2F1F8
:10081000200300FA03FC20FA02F001FA03FE40EA8A
:100820000E0021FA02F11444BDE600BF70B54FF08E
:10083000FF0C4CF4E06C1CEA11541DBF1CEA13556C
:1008400094EA0C0F95EA0C0F00F0DEF82C4481EAD4
:10085000030621EA4C5123EA4C5350EA013518BFF4
:1008600052EA033541F4801143F4801338D0A0FBE1
:1008700002CE4FF00005E1FB02E506F00042E0FB8E
:1008800003E54FF00006E1FB03569CF0000F18BF94
:100890004EF0010EA4F1FF04B6F5007F64F540743C
:1008A00004D25FEA4E0E6D4146EB060642EAC621CF
:1008B00041EA55514FEAC52040EA5E504FEACE2E3C
:1008C000B4F1FD0C88BFBCF5E06F1ED8BEF1004F3F
:1008D00008BF5FEA500E50F1000041EB045170BDBB
:1008E00006F0004646EA010140EA020081EA0301FF
:1008F000B4EB5C04C2BFD4EB0C0541EA045170BDFB
:1009000041F480114FF0000E013C00F3AB8014F174
:10091000360FDEBF002001F0004170BDC4F10004BD
:10092000203C35DA0C341BDC04F11404C4F120053E
:1009300000FA05F320FA04F001FA05F240EA020099
:1009400001F0004221F0004110EBD37021FA04F6CF
:1009500042EB06015EEA430E08BF20EAD37070BD89
:10096000C4F10C04C4F1200500FA04F320FA05F0E8
:1009700001FA04F240EA020001F0004110EBD370EA
:1009800041F100015EEA430E08BF20EAD37070BD5A
:10099000C4F1200500FA05F24EEA020E20FA04F333
:1009A00001FA05F243EA020321FA04F001F00041E2
:1009B00021FA04F220EA020000EBD3705EEA430E53
:1009C00008BF20EAD37070BD94F0000F0FD101F082
:1009D0000046400041EB010111F4801F08BF013CBB
:1009E000F7D041EA060195F0000F18BF704703F0F9
:1009F0000046520043EB030313F4801F08BF013D80
:100A0000F7D043EA0603704794EA0C0F0CEA13553B
:100A100018BF95EA0C0F0CD050EA410618BF52EAF5
:100A20004306D1D181EA030101F000414FF00000FB
:100A300070BD50EA410606BF1046194652EA430609
:100A400019D094EA0C0F02D150EA013613D195EA7D
:100A50000C0F05D152EA03361CBF104619460AD1C5
:100A600081EA030101F0004141F0FE4141F47001CF
:100A70004FF0000070BD41F0FE4141F4780170BDBF
:100A800070B54FF0FF0C4CF4E06C1CEA11541DBF24
:100A90001CEA135594EA0C0F95EA0C0F00F0A7F826
:100AA000A4EB050481EA030E52EA03354FEA013153
:100AB00000F088804FEA03334FF0805545EA131366
:100AC00043EA12634FEA022245EA111545EA10652E
:100AD0004FEA00260EF000419D4208BF964244F1C5
:100AE000FD0404F5407402D25B084FEA3202B61AE4
:100AF00065EB03055B084FEA32024FF480104FF4B8
:100B0000002CB6EB020E75EB030E22BFB61A75462B
:100B100040EA0C005B084FEA3202B6EB020E75EBBE
:100B2000030E22BFB61A754640EA5C005B084FEA26
:100B30003202B6EB020E75EB030E22BFB61A7546F3
:100B400040EA9C005B084FEA3202B6EB020E75EBFE
:100B5000030E22BFB61A754640EADC0055EA060EBF
:100B600018D04FEA051545EA16754FEA06164FEA02
:100B7000C30343EA52734FEAC2025FEA1C1CC0D1AE
:100B800011F4801F0BD141EA00014FF000004FF03B
:100B9000004CB6E711F4801F04BF01430020B4F1FC
:100BA000FD0C88BFBCF5E06F3FF6AFAEB5EB030CB4
:100BB00004BFB6EB020C5FEA500C50F1000041EBB1
:100BC000045170BD0EF0004E4EEA113114EB5C047E
:100BD000C2BFD4EB0C0541EA045170BD41F4801151
:100BE0004FF0000E013C90E645EA060E8DE60CEA59
:100BF000135594EA0C0F08BF95EA0C0F3FF43BAF76
:100C000094EA0C0F0AD150EA01347FF434AF95EA2C
:100C10000C0F7FF425AF104619462CE795EA0C0F10
:100C200006D152EA03353FF4FDAE1046194622E7DD
:100C300050EA410618BF52EA43067FF4C5AE50EAB7
:100C400041047FF40DAF52EA43057FF4EBAE12E7A7
:100C50004FF0FF3C06E000BF4FF0010C02E000BF88
:100C60004FF0010C4DF804CD4FEA410C7FEA6C5C6B
:100C70004FEA430C18BF7FEA6C5C1BD001B050EA0E
:100C8000410C0CBF52EA430C91EA030F02BF90EAF9
:100C9000020F0020704710F1000F91EA030F58BFB8
:100CA000994208BF90422CBFD8176FEAE37040F01A
:100CB000010070474FEA410C7FEA6C5C02D150EAB8
:100CC000013C07D14FEA430C7FEA6C5CD6D152EA73
:100CD000033CD3D05DF8040B704700BF8446104638
:100CE00062468C461946634600E000BF01B5FFF737
:100CF000B7FF002848BF10F1000F01BD4DF808ED07
:100D0000FFF7F4FF0CBF012000205DF808FB00BFD7
:100D10004DF808EDFFF7EAFF34BF012000205DF831
:100D200008FB00BF4DF808EDFFF7E0FF94BF01207E
:100D300000205DF808FB00BF4DF808EDFFF7CEFF7F
:100D400094BF012000205DF808FB00BF4DF808EDBE
:100D5000FFF7C4FF34BF012000205DF808FB00BF8F
:100D60004FEA410C7FEA6C5C02D150EA013C0AD1A7
:100D70004FEA430C7FEA6C5C02D152EA033C02D199
:100D80004FF0000070474FF0010070474FEA4102FA
:100D900012F5001215D211D56FF47873B3EB6252CD
:100DA00012D94FEAC12343F0004343EA505311F0F4
:100DB000004F23FA02F018BF404270474FF0000086
:100DC000704750EA013005D111F0004008BF6FF0C4
:100DD000004070474FF00000704700BF4A0011D23A
:100DE00012F5001211D20DD56FF47873B3EB625285
:100DF0000ED44FEAC12343F0004343EA505323FA91
:100E000002F070474FF00000704750EA013002D105
:100E10004FF0FF3070474FF0000070477BB972B958
:100E20000029BEBF00204FF0004106E008BF0028A7
:100E30001CBF6FF000414FF0FF3000F057B8ADF12C
:100E4000080C6DE904CE002909DB002B1ADB00F049
:100E50004FF8DDF804E0DDE9022304B070474042BA
:100E600061EB4101002B1BDB00F042F8DDF804E0F0
:100E7000DDE9022304B0404261EB4101524263EBE1
:100E800043037047524263EB430300F031F8DDF84F
:100E900004E0DDE9022304B0404261EB4101704708
:100EA000524263EB430300F023F8DDF804E0DDE990
:100EB000022304B0524263EB4303704753B94AB96B
:100EC000002908BF00281CBF4FF0FF314FF0FF3052
:100ED00000F00CB8ADF1080C6DE904CE00F008F894
:100EE000DDF804E0DDE9022304B07047704700BF7D
:100EF0002DE9F04786468C460846089E15467446FE
:100F00001946002B40F0C2808542B2FA82F245D9E0
:100F10004AB1C2F1200300FA02FC2EFA03F3954015
:100F200043EA0C0C94404FEA154EA8B2BCFBFEF805
:100F3000230C0EFB18CC08FB00F943EA0C4399453F
:100F400028D9EB1808F1FF3704D2994502D9A8F146
:100F500002072B44A3EB0903A4B2B3FBFEFC0EFB78
:100F60001C330CFB00F044EA0344A04214D92C19B2
:100F70000CF1FF3304D2A04202D9ACF102032C449D
:100F8000241A43EA07401EB1D44000233460736042
:100F9000BDE8F0874746DDE76346F1E792BB431BB8
:100FA00001214FEA154EAFB2B3FBFEFC200C0EFB45
:100FB0001C330CFB07F840EA0343984562D9EB1851
:100FC0000CF1FF3004D2984502D9ACF102002B4459
:100FD000A3EB0803A4B2B3FBFEFC0EFB1C330CFB1B
:100FE00007F744EA0344A7424ED92C190CF1FF330A
:100FF00004D2A74202D9ACF102032C44E41B43EA19
:101000000040C0E7C2F1200320FA03F19540904070
:101010002EFA03F303434FEA154EAFB2B1FBFEFCC9
:101020000EFB1C10190C0CFB07F841EA0041884527
:1010300004FA02F422D969180CF1FF3004D2884571
:1010400002D9ACF102002944A1EB08019BB2B1FB2B
:10105000FEFC0EFB1C110CFB07F743EA01439F4209
:101060000ED9EB180CF1FF3104D29F4202D9ACF13A
:1010700002012B44DB1B41EA004192E76046E3E7B3
:101080006146F7E76046A3E76346B7E7834206D9C0
:1010900016B9002108467BE7C6E900E0F9E7B3FA94
:1010A00083F78FB9834201D3724508D8BEEB02049F
:1010B00060EB030301209C461EB9002168E7384617
:1010C000FAE7C6E9004CF8E7C7F1200CBB4022FA6A
:1010D0000CF41C432EFA0CF120FA0CF3B840014337
:1010E0004FEA14490EFA07F5B3FBF9F81FFA84FE2C
:1010F00009FB18300B0C08FB0EFA43EA00439A4533
:1011000002FA07F240D9E31808F1FF3004D29A45F9
:1011100002D9A8F102002344A3EB0A0389B2B3FB6E
:10112000F9F809FB183308FB0EFE41EA03418E452E
:101130002CD9611808F1FF3304D28E4502D9A8F1E9
:101140000203214443EA0040A0FB0298A1EB0E01F8
:101150004145CE46434602D306D14D4504D2B9EBB4
:10116000020E68EB04030138002EA6D0B5EB0E0288
:1011700061EB030101FA0CFC22FA07F34CEA0303CA
:10118000F940C6E9003198E74046C5E74346D9E74C
:101190002DE9F04FCBB0594C20460FF014FC2168DC
:1011A000064630B956480DF042F930464BB0BDE81E
:1011B000F08F54480DF03BF901F0C4FF04460028BD
:1011C00067D0014650480DF032F950480DF02FF924
:1011D0004F4D6F6938460CF0FAFE0646002800F0C5
:1011E0008A80FB890021013BFB810160EFF31183C1
:1011F000102282F31288BFF36F8F2A6A2862106070
:1012000083F31188BFF36F8F2E222E3808F060FC15
:10121000012306F8303C7F2306F82F3C3D4B46F86F
:10122000283C802346F8203C2AAB46F81C3C46F874
:10123000243C28460DF009FFA8684FF0FF324FF01C
:10124000FF3307F073F805F12C000CF0C0FE05F138
:101250002C0600284BD00022AB6946680260EFF3F1
:101260001182102181F31288BFF36F8F1968186003
:10127000086082F31188BFF36F8FDA890132DA8157
:10128000002E61D01D4B2448196832460DF0CFF86E
:101290008BE722480DF0CBF841F2883001F05EFF79
:1012A000044610B101461E488DE71E491E480DF048
:1012B000BEF81E491B4843F6982201F059FF044628
:1012C00010B101461A487EE71A491B480DF0AFF8E5
:1012D00018491A4842F2107340F25B7201F06CFF39
:1012E000044610B1014616486DE716486EE73046D1
:1012F0000CF06DFEADE76FF00B06C3E7AC12010812
:10130000DC1E0108301F0108581F0108A520010834
:10131000D40900200C0A0020DF2001086F1F0108FB
:10132000921F0108B91F0108BE1F0108E01F010834
:10133000E91F0108082001081820010841200108C0
:101340005E2001087D200108B34DAB685B69002B6E
:1013500040F03581B14B0D93002612AB314620226F
:1013600018460E9608F0B4FB0D9A0D219568009072
:1013700001230EAA2AA80F91A8471AAB31462022B2
:101380001846109608F0A4FB0D9A0E21956800905F
:10139000012310AA2AA81191A8479DF97870209DD1
:1013A000A7F11F00FFF7D8F902460B4600204FF0C7
:1013B000804107F099FE894680462846FFF7CCF920
:1013C0004B464246FFF732FA954B0022FFF72EFAC2
:1013D00002460B46CDE9062385A3D3E90023FFF798
:1013E0004FFB85A3D3E9002307F07EFE02460B46A0
:1013F00000208C49FFF762F881A3D3E90023FFF7AF
:1014000015FA894B894ACDE908011898B042A8BF5E
:101410001A469DF958300B920028B8BF4042B3429B
:10142000A5BFA3F12006C3F120025B4200FA06F635
:10143000AABF20FA02F2D84098404FEAD0794FF084
:10144000000120F00040A8BF1643FFF7B9F96EA3D2
:10145000D3E90023FFF7EAF96DA3D3E90023FFF7EF
:101460000FFBFFF7BBFC714A6F4B12EA250B38BF2D
:101470009B46002DB8BF6D42002F49EA46098246BF
:1014800080F2A8807F42FD400026DDE90801FFF7D9
:101490007DFC0746FFF760F902460B46DDE90801CF
:1014A000FFF70CF8624B0022FFF7C0F9FFF76EFC64
:1014B0000021CDE90370804625F00040FFF780F958
:1014C00051A3D3E90023FFF7B1F951A3D3E90023D6
:1014D000FFF7D6FAFFF782FCED0F45EA46050290CA
:1014E000CDE900B50B99534853464A460CF09FFF8F
:1014F000002C5ED11898FFF72FF982469DF958000D
:101500001F388B46FFF728F902460B4600204FF0A4
:10151000804107F0E9FD02460B4650465946FFF769
:1015200085F98B468246FFF731FC0546FFF714F933
:1015300002460B4650465946FEF7C0FF3C4B002280
:10154000FFF774F9FFF722FC2B463B4A009020215D
:1015500022A808F02DFB22A9384801F055FEDDE94C
:101560000601FFF713FC0546FFF7F6F802460B46A7
:10157000DDE90601FEF7A2FF2D4B0022FFF756F929
:10158000FFF704FC2C4A00902B46202122A808F0EB
:101590000FFB22A92A4801F037FE2021264ACDF868
:1015A00000803B4622A808F003FB264822A901F050
:1015B0002BFE002142F210700FF0EDFB08E60DA9A2
:1015C00028469847064600283FF4C6AE02462968DA
:1015D0001D485BE6A7F12006C7F1200305FA06F6D1
:1015E00025FA03F31E43BD404FE700BFAFF3008071
:1015F0000000000000AA8F406C45D9CC955BC83F25
:101600000000000040A5E5400000000080842E415D
:101610000000C0FFFFFFDF41AC120108E41A01081F
:10162000000024400000F03F24220108DA1E0108D7
:101630000000594021210108572101085D210108BE
:101640007421010888210108FD2001080000000024
:101650002DE9F04F23F000471D469A4657EA020352
:1016600093B000F0368389468046D54829F000467D
:10167000864214461146CB464346324600F2238347
:1016800000F02C83874200F21E8300F0CE83BBF172
:10169000000FC0F27983002900F038830021009107
:1016A000404649460493029207F09EFE049B029A2C
:1016B000002B00F08D834FEADB73013B0A93C14B93
:1016C0009F4200F2E783BE4B0BEA0303002B40F07E
:1016D00098840022BC4BFFF7A9F86FF034060A4645
:1016E0001315A3F2FF339F19B84B0B97C2F31302E4
:1016F00042F07F569A4246F4401607DDB44B9A42B8
:1017000040F3EC8401370B97A6F5801600220023E6
:10171000CDE90823CDE91023AE4B0022CDE9062305
:101720000027DDE9062331468246FEF7C7FEB346B1
:10173000DDE906238046894650463146CDE90CABAB
:10174000FEF7BEFE02460B460020A249FFF798F9BD
:101750000A460146CDE90E12134649460246404666
:10176000FFF764F80A4683469446CDE902BC4FF081
:10177000000CCDF808C07610DDE902AB46F000564B
:10178000014606F50023CDE904120020D9190646CA
:101790000F4602460B4650465946FFF747F80246A9
:1017A0000B4640464946FEF789FEDDE906238046A2
:1017B000894630463946FEF781FE02460B46DDE992
:1017C0000C01FEF77BFE52465B46FFF72FF8024600
:1017D0000B4640464946FEF771FEDDE90E23FFF752
:1017E00025F8DDE90467CDE9060132463B4630467F
:1017F0003946FFF71BF860A3D3E9002306460F46DE
:10180000FFF714F85EA3D3E90023FEF759FE324632
:101810003B46FFF70BF85CA3D3E90023FEF750FE2D
:1018200032463B46FFF702F859A3D3E90023FEF7FF
:1018300047FE32463B46FEF7F9FF57A3D3E90023A4
:10184000FEF73EFE32463B46FEF7F0FF54A3D3E9D7
:101850000023FEF735FE3246804689463B46304639
:101860003946FEF7E3FF02460B4640464946FEF77F
:10187000DDFF524606460F465B46DDE90401FEF7F2
:101880001FFEDDE90623FEF7D1FF32463B46FEF799
:1018900017FE5246804689465B4650465946FEF73B
:1018A000C5FF02460B46CDE90C234B4B0022FEF749
:1018B00007FE42464B46FEF703FE00260F46324621
:1018C0003B4650465946FEF7B1FF434B82468B4696
:1018D000002230463946FEF7F1FDDDE90C23FEF724
:1018E000EDFD02460B4640464946FEF7E7FDDDE9C1
:1018F0000423FEF79BFF3246804689463B46DDE9DE
:101900000601FEF793FF02460B4640464946FEF7A6
:10191000D7FD8046894602460B4650465946FEF79B
:10192000CFFD002620A3D3E9002330460F46FEF763
:101930007DFF52465B4682468B4630463946FEF76F
:10194000BDFD02460B4640464946FEF7B7FD18A3CB
:10195000D3E90023FEF76AFF17A3D3E900238046EB
:10196000894630463946FEF761FF02460B4640463F
:10197000494633E0AFF30080EF4E454A287ECA3F28
:1019800065DBC9934A86CD3F01411DA96074D13FF3
:101990004D268F515555D53FFFAB6FDBB66DDB3F05
:1019A000033333333333E33F000000E009C7EE3F36
:1019B000FD033ADC09C7EE3FF5015B14E02F3EBEA4
:1019C0000000F07F0000E041000040438E980300DB
:1019D00079B60B000000F03F00000840FEF770FDF4
:1019E000DDE91023FEF76CFD80460B988946FEF773
:1019F000B3FE424606460F464B4650465946CDE991
:101A000004ABFEF75DFDDDE90823FEF759FD324624
:101A10003B46FEF755FD002032463B4682468B464C
:101A2000FEF74CFDDDE90823FEF748FDDDE9042360
:101A3000FEF744FD02460B4640464946FEF73EFD92
:101A4000CDE90201009B0A9A013B134314BFC84B26
:101A5000C84B0022CDE904230023CDE900450093C3
:101A6000DDE90089204642464B462946FEF726FD21
:101A70005B465246FEF7DAFE224606460F462B46E6
:101A8000DDE90201FEF7D2FE02460B46304639463A
:101A9000FEF716FD424604460D464B465946504653
:101AA000FEF7C4FE0B46024606460F462046294670
:101AB000FEF706FDB04B9942A046A94604460D46E6
:101AC0008B4640F30C8201F13F4303F5E0030343EF
:101AD00040F0A28294A3D3E9002340464946FEF792
:101AE000EFFC3246CDE900013B4620462946FEF791
:101AF000E5FC02460B46DDE90001FFF727F9002867
:101B000040F08A824FF400715944C1F30A539B4854
:101B1000A3F2FF33C1F31302184142F48012C3F160
:101B2000140342FA03FABBF1000F00EA01034FF07D
:101B3000000230463946B8BFCAF1000AFEF7BEFCC3
:101B400002460B4606460F4640464946FEF7B8FC9D
:101B50004FEA0A5B0D46002475A3D3E90023204613
:101B60002946FEF763FE3246CDE900013B4620469A
:101B70002946FEF7A3FC02460B4640464946FEF7BF
:101B80009DFC6DA3D3E90023FEF750FE6CA3D3E9BF
:101B9000002306460F4620462946FEF747FE02462A
:101BA0000B4630463946FEF78BFCDDE900890646D8
:101BB0000F4602460B4640464946FEF781FC424628
:101BC0004B4604460D46FEF779FC02460B4630466E
:101BD0003946FEF773FC2246804689462B4620464E
:101BE0002946FEF723FE58A3D3E9002306460F46F5
:101BF000FEF71CFE56A3D3E90023FEF75FFC324636
:101C00003B46FEF713FE54A3D3E90023FEF758FC2E
:101C100032463B46FEF70AFE51A3D3E90023FEF706
:101C20004DFC32463B46FEF701FE4FA3D3E90023AD
:101C3000FEF746FC32463B46FEF7F8FD02460B46F1
:101C400020462946FEF73AFC06460F4602460B465A
:101C500020462946FEF7EAFD0022CDE900014FF0BB
:101C6000804330463946FEF729FC02460B46DDE943
:101C70000001FEF705FF424606460F464B4620464A
:101C80002946FEF7D3FD42464B46FEF719FC0246B5
:101C90000B4630463946FEF711FC22462B46FEF72E
:101CA0000DFC02460B4600203149FEF707FC0C46AE
:101CB0005C44B4F5801FC0F223822146DDE9042391
:101CC000FEF7B4FD07E006F1404606F580161E4318
:101CD00007D12749002013B0BDE8F08F0BB9B742F8
:101CE00005D9274813B0BDE8F04F07F087BB7FF454
:101CF000CEAC002CF5D1234B9E4240F28581BAF147
:101D0000000FC0F2DB8020462946E4E718488742EE
:101D100040F0D780BAF1000FC0F2CE81404649466C
:101D2000D9E700BFAFF30080FE822B654715973CD3
:101D300000000000432EE63FEF39FAFE422EE63F58
:101D4000396CA80C615C20BED0A4BE726937663EB7
:101D5000F16BD2C541BDBB3E2CDE25AF6A56113FAB
:101D600093BDBE166CC1663F3E5555555555C53F92
:101D70000000F03F0000F0BFFFFF8F400000F0FFC9
:101D8000701E0108FFFFEF3FBF48874270D8BF4871
:101D900087420DD93815A0F2FF30142840F349814D
:101DA000C0F1340021FA00FC0CFA00F088422AD07D
:101DB000002940F0B780BAF1804F2FD00091404603
:101DC00049460493029207F00FFB049B029A2BB939
:101DD000AF4B2BF0404C9C4532D08EB3DDF800C0A9
:101DE0004FEADB73013B0A935CEA03037FF467ACC1
:101DF00042464B4610461946FEF760FB02460B462C
:101E0000FEF73EFE67E70CF0010CCCF102000090FB
:101E100000297FF445ACBAF1804FD0D142464B4601
:101E200040464946FEF702FD55E7002C7FF44BAFD4
:101E300006F1404202F580121A433FF44AAF5AE7D6
:101E4000BAF1000F05DA02460B4600209049FEF772
:101E500017FEBBF1000FBFF63EAF009B06F14046F8
:101E600006F580161E4340F0318102460B46C1E75D
:101E7000002900F04981404649460293009207F04C
:101E8000B3FA029B009A002B00F01D8102230093FD
:101E900000230A937F4B9F427C4B4FD99E420AD925
:101EA000BAF1000F0ADD6CA3D3E9002310461946EE
:101EB000FEF7BCFC0FE7BAF1000FF4DB00200021B5
:101EC00009E7BAF1804FA9D0734882457FF476AF15
:101ED0004046494613B0BDE8F04F07F0C3B9DFF8FC
:101EE000BCC121F00043634540F2DE806C4B0B44E3
:101EF00003430AD132463B46FEF7E0FA42464B46E0
:101F0000FEF71AFF00283FF4FDAD55A3D3E90023E7
:101F1000DDE90401FEF78AFC51A3D3E90023FEF7B3
:101F200085FCD8E6404649460093029207F05CFAE9
:101F3000009B002B7FF45CAF029A49E79E42BAD324
:101F4000534B9E42ACD8524B0022FEF7B7FA46A341
:101F5000D3E9002306460F46FEF768FC44A3D3E905
:101F600000238046894630463946FEF75FFC4D4BDC
:101F700082468B46002230463946FEF757FC024621
:101F80000B463DA1D1E90001FEF798FA32463B46E7
:101F9000FEF74CFC02460B4600203F49FEF78EFA46
:101FA0003246CDE902013B4630463946FEF73EFC5B
:101FB00002460B46DDE90201FEF738FC30A3D3E907
:101FC0000023FEF733FC02460B4650465946FEF707
:101FD00075FA02460B4606460F4640464946FEF74E
:101FE0006FFA002042464B4682468B46FEF766FA61
:101FF00002460B4630463946FEF760FACDE902014B
:1020000020E50026FFF76CBBBAF1000FBFF656AF14
:10201000204605F100415EE60FA3D3E90023DDE988
:102020000401FEF703FC0CA3D3E90023FEF7FEFB3B
:1020300051E600297FF476AFC0F1140047FA00FCA6
:102040000CFA00F0B84266D0114887423FF462AE05
:10205000B1E600BFAFF300809C7500883CE4377E9A
:1020600059F3F8C21F6EA501000000604715F73F45
:1020700044DF5DF80BAE543E555555555555D53F8B
:10208000FE822B654715F73FFFFF3F43FFFFEF3F02
:102090000000F03F0000F0430000E03FFFCB904025
:1020A00000346F3F0000D03F294A934241D8DDE918
:1020B0000023934692464EE542464B462549002072
:1020C000FEF7DEFC07E60223009381E6009B012B6E
:1020D0007FF401AE01F100431946FCE518A3D3E9F2
:1020E0000023CDE9082318A3D3E90023CDE9102369
:1020F000194B0022CDE906234FF48027FFF711BBCF
:10210000524600F02DF8D9E5BAF1804F3FF486AE83
:102110000221009153E60F498F423FF4FBADBAF123
:10212000804F3FF47BAE0CF0010CCCF1020100912A
:1021300045E61B15A3F2FE334FF480111941E3E489
:102140000000004003B8E23F06D0CF43EBFD4C3E19
:102150000000E03F0000F03F0000F83F00000000FA
:10216000F8B5C1F30A5604460D4617460B463EBB6A
:1021700021F00043034322D02B4B0022FEF756FBF5
:102180002A4B9F4204460D4637DBC1F30A560B46E5
:10219000363EBA1940F2FE718A4219DC002A32DC5E
:1021A00012F1350F20DB23F0FF43363223F4E00336
:1021B00043EA025120461E4B0022FEF737FBF8BDD2
:1021C00040F2FF729642E4D10246FEF779F9F8BD7B
:1021D00011A3D3E90023ED0F1C4665F3DF742146FC
:1021E0001448FEF723FBF8BD05F0004343F0D2711D
:1021F00041F4B731104841F01F0109A3D3E900238E
:10220000FEF714FBF8BD23F0FF4323F4E003204660
:1022100043EA0251F8BD00BF9C7500883CE4377E5C
:1022200059F3F8C21F6EA50100005043B03CFFFFF8
:102230000000903C9C75008859F3F8C20000000033
:102240002DE9F04F016C9FB016461F46CDE904679B
:102250002B9D039049B1426C4A6001239340044690
:102260008B6009F011FC00232364B7F10009B4BFAF
:10227000012300232B60764BBCBF29F00049CDF829
:10228000149033EA090300F0AA80DDE90434002247
:10229000184621460023CDE90801FEF72FFD8046B0
:1022A00068B12A9A012313602C9B13B12C9A694BB5
:1022B0001360694B0A930A981FB0BDE8F08F1CABFE
:1022C00001931DAB00930398DDE9082309F010FF8B
:1022D0005FEA1955824640F09880DDE91C85454447
:1022E00005F23243202B40F38383C3F1400309FA04
:1022F00003F905F2124326FA03F349EA0300FEF755
:102300001BFA0123013DA1F1F8711193534B0022F7
:10231000FEF7D4F848A3D3E90023FEF787FA48A3D1
:10232000D3E90023FEF7CCF8064628460F46FEF711
:1023300013FA45A3D3E90023FEF778FA02460B46C9
:1023400030463946FEF7BCF806460F46FEF71EFD3E
:1023500000228346002330463946FEF7D9FC002888
:1023600040F01A83A8EB0508BBF1160F08F1FF3403
:1023700000F28B813A4D05EBCB05D5E90023DDE971
:102380000801FEF7C5FC002870D00023002C0BF1DB
:10239000FF3B1093C0F27E8100230B93BBF1000F33
:1023A0006ADA0B9BA3EB0B030B93CBF10003CDE994
:1023B0000EB3289B092B4FF0000B65D8052B40F37B
:1023C0001C83043B28930025289B023B032B00F22F
:1023D0002386DFE813F060045D04540438042A9A6D
:1023E000C9F3130942F20F7359EA060913601CD1AD
:1023F0002C9B002B00F02B861A4B0A9308332C9A47
:102400000A9813601FB0BDE8F08FDDE90812C2F32F
:102410001303084643F07F51CDF84480A5F2FF3501
:10242000DDF8708041F4401170E72C9B002B40F0E8
:10243000E7830D4B0A933EE761436F63A787D23F63
:10244000B3C8608B288AC63FFB799F501344D33FA3
:102450000000F07F611D0108601D01080000F83FC9
:10246000B0170108841D0108901D0108B8F1000F84
:1024700040F3608410900B9000230F93289BCDF8BD
:1024800038B0092B5C4499D90023CDE928330125C4
:102490004FF0FF330C950693039B00215964069B74
:1024A0001893039809F0CAFA0A90002800F0BD8535
:1024B000039B0A9A1A64069B0E2B00F21581002DCD
:1024C00000F012810E9A002A40F33B84B24D02F0D4
:1024D0000F0305EBC303D3E9008913461511DA0591
:1024E00040F1FA83AD4BDDE90801D3E90823FEF79B
:1024F000C7FACDE9120105F00F0503277DB1A74EFC
:10250000EB0708D540464946D6E90023FEF78EF989
:102510000137804689466D1006F10806F0D1424623
:102520004B46DDE91201FEF7ABFA80468946109B67
:1025300043B19B4B002240464946FEF7E9FB002889
:1025400040F0F1843846FEF707F942464B46FEF765
:102550006DF9944B0022FDF7B3FF069B0646A1F1EF
:102560005077002B00F0A9800E9B1993069B1293C5
:102570000A9B894D49464046CDE914675E1CFEF72B
:1025800005FC129905EBC10353E902120746CDE998
:102590001612FEF7E1F802460B4640464946FDF7A3
:1025A0008DFF89460C993037DDE916238046FFB24E
:1025B000002900F053847C490020FEF761FADDE930
:1025C0001423FDF77BFF0A9D02460B46CDE9142339
:1025D0002F7042464B46FEF7B9FB002840F0978427
:1025E000CDE91AB4CDF858A0129DDDE914AB00274F
:1025F0002AE00137AF4280F2DE846C4B50465946E8
:102600000022FEF713F9694B002282468B464046B2
:102610004946FEF70BF989468046FEF7B7FB0446AC
:10262000FEF79AF802460B4640464946FDF746FF3C
:10263000303406F8014B52465B4680468946FEF729
:1026400067FB002840F0B48442464B4654490020C2
:10265000FDF734FF52465B46FEF75AFB0028C8D010
:10266000199BDDF858A00A9A374603F1010802E0E9
:10267000974200F07C843E4617F8013D392BF7D095
:102680000133DBB23B70454675E10123002C10930A
:10269000BFF682AEC8F101030B9300247EE63846F4
:1026A000FEF75AF842464B46FEF7C0F83D4B002273
:1026B000FDF706FF0646A1F150773D4B40464946DF
:1026C0000022FDF7FBFE32463B4680468946FEF778
:1026D0003DFB002840F05A8440464946324607F107
:1026E0000043FEF715FB28BB1D9B002BC0F2928018
:1026F0000E9A0E2A00F38E80274D0E9B05EBC30524
:10270000D5E90034CDE90434299B002B19DA069B66
:10271000002B16DC0ED1264B0022DDE90401FEF76A
:1027200085F802460B46DDE90801FEF7FBFA0028B2
:1027300000F02C844FF000090A9E4F46299BDD4390
:1027400025E2DDE90445DDE9088922462B464046BD
:102750004946FEF795F9FEF719FB0646FDF7FCFF23
:1027600022462B46FEF762F80A9F0B460246494670
:102770004046FDF7A3FE06F1300307F8013B069B38
:10278000012B00F012830125CDF818A09946DDE950
:1027900004ABA8462CE000BFB01701088817010859
:1027A0000000F03F00001C400000E03F000024401B
:1027B0000000144052465B4620462946FEF760F969
:1027C000FEF7E4FA0646FDF7C7FF52465B46FEF702
:1027D0002DF808F101080B46024629462046FDF770
:1027E0006DFE06F13003C84507F8013B00F0DB82BF
:1027F000B94B0022FEF71AF80022002304460D46CA
:10280000FEF77CFA0028D5D00E9DDDF818A0013522
:102810003E46B0E00C9A002A40F0D28000230F9D83
:102820000B9E0C931F4656B1002C08DDA6420B9A56
:102830003346A8BF2346D21A0B92F61AE41A0F9B0E
:1028400053B10C9B13B1002D40F0E88251460F9A12
:10285000039809F0A9FA82460398012109F0C0F90A
:102860008146BBF1000F40F0B681289B012B40F35D
:10287000CC810120204410F01F0000F09A80C0F1AC
:102880002003042B40F3DA810B9BC0F11C000344AE
:102890000B93064404440B9B002B05DD5146039823
:1028A0001A4609F0DBFA8246002C05DD49460398FA
:1028B000224609F0D3FA8146109B002B40F070812C
:1028C000069B002B40F348810C9B002B40F0A4801A
:1028D0000E9D0135DDF82880069CDDF80CB0012640
:1028E00007E0514600230A22584609F0D7F801367E
:1028F00082464946504608F0BBFEA64200F130032E
:1029000008F8013BEDDB069A002AC8BF16460A9A72
:10291000D8BF012602EB060B002451460122039882
:10292000049309F09BFA4946824609F00FFB002800
:1029300040F3E3810A9A02E05A4500F0E9815E46DD
:102940000BF1FF3B16F8013C392BF5D001338BF826
:102950000030DDF80C804946404609F095F857B143
:102960002CB1BC4203D02146404609F08DF80398B3
:10297000394609F089F80398514609F085F8002393
:1029800033702A9B1D602C9B002B3FF494AC0A985B
:102990001E601FB0BDE8F08F5846FDF7DDFE3246E1
:1029A0003B46FEF7ABF900287FF4DCAC0BF1FF3BB4
:1029B000D8E41C230B9A1A440B921E441C446AE769
:1029C000289A012A40F3A981069A0F9B551EAB4213
:1029D000C0F26B81002AA3EB050580F2DD820B9B20
:1029E000069A9E1A0398012109F0FAF807461AE799
:1029F000C3F1200306FA03F081E40125E4E439463B
:102A0000002303980A2209F049F8189B002B074677
:102A100040F3EF820E950693002E00F33F81BBF149
:102A2000000F40F0DF81B8460A9E069C731E1C44CE
:102A3000049B0C9403F00103039C0F9349465046FA
:102A400008F016FE39468346504609F07FFA4246A2
:102A500049460546204609F099FAC26801460BF13D
:102A60003003002A3AD1089050460B9309F06EFAD1
:102A700008990690204609F007F8069A0B9B002A51
:102A80005AD1289A1AB90F9A002A00F09A82002D7A
:102A900045DB0C9AB346B2420BF8013B00F0B9811A
:102AA000514600230A22204608F0F8FF4745824697
:102AB00039464FF000034FF00A02204636D008F0A6
:102AC000EDFF4146074600230A22204608F0E6FFB4
:102AD0005E468046B2E700BF00002440039806939C
:102AE00008F0D2FF002D069B06DB049A289902F01D
:102AF00001020D432A432AD151460122039804932F
:102B000009F0ACF94946824609F020FA0028049BF6
:102B100040F3E880392B00F02F820BF131030E9D3A
:102B200006F8013B3C460135474612E708F0B6FF80
:102B30005E460746804681E7002DC0F27D822899D7
:102B40000D430F990D4300F07782002AA1DD392B48
:102B500000F012820133E2E7289B022B7FF7B4AE2C
:102B6000069B002B40F01D8149460522039808F082
:102B700095FF01468146504609F0E8F9002840F3E8
:102B800010810A9E0E9D312306F8013B0135039802
:102B90004946013508F078FF002F7FF4E8AEEAE6F9
:102BA0004946504609F0D2F90028BFF689AE514691
:102BB000002303980A2208F071FF0E9B5D1E0C9BF8
:102BC0008246002B7FF41BAF189B002B40F3FF8144
:102BD0000E9D06937EE601465A46039809F0E4F8F6
:102BE000289B012B81466CDD4FF0000BD9F810308B
:102BF00009EB8303186908F0A1FFC0F1200039E652
:102C0000924B0A930333FFF7FABB049B002B7FF42C
:102C100030AEDDE90412C2F31303002B7FF429AEBA
:102C20008B4B134023B10B9B01330B9301340123D6
:102C3000BBF1000F40F0AE819B461AE63FF42BAE8D
:102C4000C0F13C03B6E601230C93299B0E9A134472
:102C500018930133012B1E460693B8BF0126172E89
:102C600040F3D581012204235B0003F11400B0423C
:102C7000114602F10102F7D9039B596411E40123C3
:102C80000C93299B002B33DD189306931E46E6E731
:102C900000230C93D9E700230C93F2E739460398FD
:102CA000324609F0DBF80746B9E60F9B069A0F9506
:102CB000EB1A9B440B9B1E46134414440B930025B4
:102CC00090E6049B002B8FD1DDE90401C1F31303CF
:102CD0000A46002B88D1A3E7DDE908230227CDE9C6
:102CE00012230BE47FF41BAFDA077FF518AF11E76F
:102CF000012329930693FFF7CFBB03D1049BDB0786
:102D00003FF518AE5E461BF8013D302BFAD020E6A9
:102D10000A9A3123013513701BE6119A002A00F03C
:102D2000F98003F233430B9A0F9D16461A441C4454
:102D30000B9257E6C8F1010304460B931090FFF77E
:102D40009BBB00F0EB800E9B424D5E4206F00F03F2
:102D500005EBC303D3E90023DDE90801FDF766FDB8
:102D60003511CDE9120100F04D813B4E00230227C1
:102D700080468946E80709D5D6E9002340464946FA
:102D8000FDF754FD01378046894601236D1006F199
:102D90000806EFD1002B7FF4CAABDDE91289FFF7FB
:102DA000C6BB0A9ECAE4DDF818A00E9D02460B467B
:102DB000FDF786FB02460B46CDE906230135DDE92A
:102DC0000423A846FDF7C2FF40B9DDE90423DDE98D
:102DD0000601FDF793FF18B1F10701D50A9A4AE4FD
:102DE0003E46C8E57968039808F028FE05460028A5
:102DF00000F026813B6902339A0007F10C010C3088
:102E0000FDF7BEFA03982946012209F027F880460B
:102E10000AE60E9D3C46013547467EE5DDF80C800E
:102E200039462A46404608F0BFFF5246014607464B
:102E3000404608F003FF51468246404608F024FE13
:102E40000F9B5B1B0F933FF407ADFFE4901D010840
:102E50000000F07FB017010888170108DDE91401B0
:102E6000FDF7E4FC0A9B1F70129B012BCDE90C01BE
:102E700000F0C680129F0A9BCDF844B01F447C4BE3
:102E8000002240464946FDF7D1FC89468046FDF7C1
:102E90007DFF8346FDF760FC0BF1300B02460B46CD
:102EA00040464946FDF70AFB06F801BBB74280469B
:102EB0008946E4D1DDF844B06E4B0022DDE90C0117
:102EC000FDF7FEFA02460B4640464946FDF73EFF37
:102ED000002867D1DDE90C2366490020FDF7EEFAF2
:102EE00002460B4640464946FDF712FF48B91D9B76
:102EF000002BFFF693AC0E9B0E2B3FF78FACFFF72A
:102F0000FCBB3E46013F16F8013C302BF9D0199D21
:102F1000013530E51C9BC3F1360304E7DDE9088980
:102F20000227FFF704BB069B002B3FF4B8AB189BAE
:102F3000002B7FF7D9AB0E9A1293013A4C4B1992A2
:102F4000404600224946FDF771FC80468946781CC0
:102F5000FDF702FC42464B46FDF768FC464B00225B
:102F6000FDF7AEFA0646A1F15077FFF701BB08F175
:102F700001083123FFF786BB0E9D0A9AB346392319
:102F80003C460BF8013B01354746D8E44FF00009B9
:102F90004F46F6E59B4629E60B9B1E461344144418
:102FA0000B931FE5199B0A9A03F10108FFF763BB16
:102FB000DDF858A0ABE7DDE91AB4DDF858A0FFF75B
:102FC00093BB392BD8D0002D3FF7A7ADA7E5289BA1
:102FD000022B0ADC189B069349460E9D08F048FB1D
:102FE0000A9A00F1300313708DE4189B06930E9536
:102FF000B6E5289B022BF8DC189B0E9506930BE593
:10300000374659E7DDE912890227FFF790BA039B9B
:1030100000215964FFF745BA039B00255D642946EA
:10302000184608F00BFD0A90A8B9144B144800226A
:103030004FF4D57109F0AAF9002A7FF770AD5BE56E
:103040000E4B0F482A4640F2EA2109F09FF90D4B3A
:103050000A93FFF730B9039B0A9A1A644FF0FF33C3
:103060000122299518930C920693FFF73DBB00BFF0
:10307000000024400000E03F00001C40941D0108B7
:10308000A81D0108841D0108F0B50646C3B00DF067
:10309000EDFE0A220023FDF711FF194F861941F1B9
:1030A000000500240DF0E2FE0A220023FDF706FFD2
:1030B000B042A94101DB43B0F0BDBB681B68CBB196
:1030C0000DF1070138469847A0B99DF807300A2B43
:1030D00008D102A908550CB90024E3E709480BF010
:1030E000A6F9F9E70D2BDDD0FE2CDBD802AA13558B
:1030F0000134D7E7002132200DF04DFED2E700BFAA
:103100000C1201089C210108F8B504460E46014640
:103110000A480B4F0BF08BF900252046FDF770F89D
:10312000854204D33046BDE8F840FFF7ADBF615D8E
:10313000BB6803485B6898470135EEE7A8210108A2
:103140000C12010808B504480DF03DFC00280CBF26
:103150006FF01200002008BD0C12010808B50348EA
:1031600041F28831FFF7D0FF002008BDB3210108EC
:1031700030B5A3B004460D460C484FF4FA61FFF792
:10318000C3FF0B4A00952346802102A806F010FDDC
:1031900002A841F28831FFF7B7FF06484FF4FA6101
:1031A000FFF7B2FF002023B030BD00BFBF210108F0
:1031B000D0210108E421010810B5AAB00B4604464D
:1031C0000092A0210D4A02A806F0F2FC02A84FF4DA
:1031D000FA61FFF799FF0A4A2346A02102A806F0E8
:1031E000E7FC02A84FF4FA61FFF78EFF054841F2B1
:1031F0008831FFF789FF00202AB010BDEF210108B8
:10320000062201082522010800B5CFB00346084A6E
:10321000009103A84FF4967106F0CAFC03A84FF47E
:10322000FA61FFF771FF00204FB05DF804FB00BFAB
:10323000372201082DE9F04F91B08407009302F086
:1032400004030293C2F3C20303F10103DDF86880B3
:10325000039205460E46059340F0BA81041D30B135
:10326000072909D86FF01B0011B0BDE8F08F01F0FD
:1032700007063444C6F10806009B4FF00009591EAA
:103280004FF0040A4FF0FF330193CDF810904F46F2
:10329000CB4653460DB1009A22600598002800F3F2
:1032A000E8809848009A824203D397488242C0F04F
:1032B000E080039AA4EB050E92074FEA9E0000F10E
:1032C00003810F2F00F2B180002D00F0058107F17E
:1032D00040020DEB020C019A0CF8200C0CF8102C9B
:1032E000049801300490E7E07A285DD84B280ED886
:1032F000472859D829282DD8252852D054D82028F5
:103300007AD02338D0F1000B4BEB000B74E04C3833
:103310002E2849D8DFE800F0704848484848484817
:10332000484848484B484848484848484859484B06
:103330004B595959704B6D487048184B1848488282
:103340007F4B48484B487F0000204FF0000B4FF068
:10335000040A38E02A38C0B2012202FA00F010EA6A
:103360000E0F49D110F0625C2FD110EA020B43D04E
:103370006046013C5444B4FBFAF40AFB04F4002D0B
:1033800061D0A3EB050CA444B4453FF66BAF002815
:1033900068D1042B47D158F8043B2360043404233C
:1033A0002AE0019A013A01924FF0000B24E011F853
:1033B000010C6C2834D111F8023C00206C2B8346A0
:1033C000C5D14FF0080A5346D3E708F1070828F0A3
:1033D00007080734F8E802AB24F0070435B1069873
:1033E0002044B0423FF63EAFC4E900AB08344FF092
:1033F000000B4FF0080A534611F8010F002878D04F
:10340000BBF1000F7FF470AF2528F5D1019B01338C
:1034100001934FF0010B4FF0040AECE7584694E794
:1034200000208346A5E7082B02D06FF015001BE7AC
:1034300008F1070828F00708F8E80223C4E9002388
:1034400008340823D8E768B9042B02D108F104082E
:10345000A4E7082BE9D108F1070828F0070808F1CC
:103460000808EDE7059A013A059258F8042B0092F6
:1034700010E7039A900720D5A4EB050E4FEA9E00B3
:103480004FF0010CBEF5007FCFD20F2FCDD8F5B194
:1034900007F140020DEB020EC0B2019A0EF8200CAB
:1034A0000EF8102CBCF1000F3FF41AAF60F07F0053
:1034B0000EF8200C09F101090137C5F108020434A6
:1034C00006924FF6DA7E97E74FF0000CDAE7BCF190
:1034D000000F01D00136EFE7029802360028EBD149
:1034E0000098CDE90631FCF78BFEDDE90631064494
:1034F000E2E7631BB3F5806F97D23DB9A6F10804EC
:10350000E018B1E6AC0F010854300108029A2860B7
:103510009B082B709DF81030C2B1EB7085F80290BB
:10352000B9F1000F05D008A80022C5F1010C97429F
:103530000ED1C5F101030DF120084FF0000A0193EF
:103540000DF1300B574512D1601B8DE66B70E5E72E
:1035500010F8013B190608D50CEB040EB64503F034
:103560007F033FF67FAE04F8013B0132DFE7B9F19C
:10357000000F03D098F90020002A17DB029BD3B17B
:103580001AF80B2004F8012B0022019B1819104493
:10359000B0423FF667AE98F8000004F8010B0099BE
:1035A00003922046FCF7ECFE039A14440AF1010A48
:1035B00008F10108C6E798F8002055F8223000937A
:1035C000029B45F822300098FCF71AFE421CDCE70B
:1035D0006FF00D0048E600BF2DE9F04F97B000AF47
:1035E00090F802A0D7F880B03B62CBF3C00304464A
:1035F000FA62BB61894641B9457800780AEB8000E0
:1036000020444D4517D8A0EB0409E378FB61BAF1DB
:10361000000F02D01BF0010F16D1FB6953BBFB6AF0
:103620001BB13A6A4946204698474D4628465C37C2
:10363000BD46BDE8F08F461C3046FCF7E1FD013089
:10364000304409F10109DCE7237862687A62FA6A9A
:103650009900796104EB8301002A40F000814D4616
:103660000E4601EB0A094FF000084E454CD101EB24
:103670000A0610E01BF0020FD1D023789A007A617D
:1036800062687A62FA6A04EB8301002A77D14D46B8
:1036900001EB0A0690461BF0050F0CBF0223012325
:1036A000FB62FB6906EB430A0BF00203BB62564563
:1036B000BCD016F8021B16F8013C54F82390994B25
:1036C000994502D3984B994536D3BB69002B40D01E
:1036D000786A0AF073FE00283BD0E9468AB06A4651
:1036E000924B53617B6AC2E906314FF40073138435
:1036F0008F4B42F8103F8F4800234FF4125101F0D6
:1037000041F8023DCD46D2E716F8013BF96254F884
:103710002300FCF775FDD7F88430F96A01304BB10E
:10372000D7F8883098453EBFD7F8843023F8180082
:1037300008F10108054498E7BB6923B1786A0AF0EB
:103740003DFE0028C9D11BF0010F05D1FB6AED1A1F
:10375000ADE7BB6A002BAAD04846FCF751FDD7F86D
:10376000843053B1D7F8883098453FBFD7F88420CC
:10377000431C22F8183008F10108054497E7BAF114
:10378000000F72D01BF0040672D0D046002607F15D
:10379000480052463B61B962FCF7F2FDB96A3B69E9
:1037A00001EB0A02BA62FA69F9695200FA60BA6A70
:1037B00002EB41023A610BF00202BA603A69B96A5F
:1037C0008A4257D162787A621BF0020F32440CBFF2
:1037D0004FEA580100211BF0010FD2B240F09F8048
:1037E0001BF0040F14BF40460020BB616270A07044
:1037F000E1703A6A7969FB6A20469847051EFFF630
:1038000015AFBB6923707B6A6370FB69E370414647
:103810003A6AFB6A84F802A007F148009847B0F1C1
:103820000008C0F2BB807B693A6AA9EB0A01C91A99
:10383000FB68C91AD7E90A0398470028C0F2B0808C
:10384000A84408EB00054FF0000B07F1380AB34518
:1038500072D300213A6AFB6A08469847E6E6564664
:103860004FF0000807F1380093E75646D04697E737
:10387000B04695E7BA6A12F8021BBA6212F8015C08
:10388000284A54F82500904202D3274A90421ED37A
:10389000BA6932B1786A7B600AF090FD7B680028D3
:1038A0008CD1BA6802BB08F1280207F1300C08F18C
:1038B0000100944407F1580252FA80F008F102081E
:1038C0000CF8101C5FFA88F800F8105C76E7BA690B
:1038D0003AB1786A7B600AF071FD7B6800287FF45A
:1038E0006DAF1BF0010F09D006F1280207F130007F
:1038F000711C161806F8205CCEB25FE71BF0040FAF
:103900003FF45CAF08F1280207F1300008F1010133
:1039100002EB000808F8105C5FFA81F84EE700201F
:1039200063E700BFAC0F0108543001084B220108C7
:1039300004000001B41601081BF80A3087F837307C
:1039400054F82390D7F884302BB3D7F888309B45B0
:1039500021D2D7F8843033F81B803A6AFB6A012100
:1039600007F13700984700281ADB0544B8F1000F2B
:1039700006D14846FCF744FC00F101081FFA88F81C
:103980003A6AFB6A414648469847002808DB0544E6
:103990000BF1010B5BE74FF00008DEE7454645E61B
:1039A000054643E6014B1860704700BFAC06002097
:1039B00030B587B00025CDE903010446009503A981
:1039C0000548059500F06EF8DDE904309842B8BF6F
:1039D000255407B030BD00BF0BE40008F0B5094E18
:1039E000016802460A2700200B4601311C78355D2C
:1039F0006D0701D41360F0BD07FB0043A3F1300055
:103A0000F2E700BF1D1C01082DE9F84F15469A4644
:103A1000D378234A12F803B06F2B81460F460BF080
:103A2000030B2BD026D8582B0CBF10260A26DDF806
:103A300028803246002348463946FDF73FFA092AD6
:103A400008F1FF38D4B21ED83034B145E4B277F172
:103A5000000788F8004001D3D04511D82B789B0689
:103A600005D5082E15D1AB7843F00803AB7040465E
:103A7000BDE8F88F03F0F703702BD5E70826D6E7EB
:103A800081460F46D5E7BBF1010F0CBF37345734E1
:103A9000DBE7102EEBD1AB7843F01003E6E700BF75
:103AA0001D1C01082DE9F04F97B08A460390164679
:103AB0001C460025307808B9284656E325280AD048
:103AC000039B514698470028C0F24F83731C013571
:103AD0000493049EEEE71822002110A805F0F8FFD9
:103AE0007378252B00F0A3800023711C98469E4616
:103AF0009C4618460F4611F8012B2B2A00F0C68071
:103B000000F2BD80202A00F0C480232A00F0C48087
:103B10002BB19DF8483043F040038DF84830B8F1A0
:103B2000000F05D09DF8483043F020038DF8483051
:103B3000BEF1000F05D09DF8483043F010038DF81A
:103B40004830BCF1000F05D09DF8483043F0080321
:103B50008DF8483028B19DF8483043F004038DF8C3
:103B600048309DF8483003F04401442903D16FF3F5
:103B700086138DF848309DF84830099743F080034C
:103B80002A2A8DF8483040F08C809DF8493043F067
:103B900001038DF849307B1C1A782E2A9DF84920A4
:103BA0000CBF0121002161F341028DF849200CD1A5
:103BB0005A1C09925A782A2A40F083809DF849209D
:103BC00042F004028DF8492002331A786C2A00F082
:103BD000A48000F28680682A00F08C806A2A00F0B7
:103BE000A5804C2A00F0AA801A4612F8013B0492E4
:103BF000782B9DF849208DF84B3000F217816D2B02
:103C000000F2A980692B00F21181572B00F2BE80CF
:103C1000412B03D0453B022B00F208819DF84A302E
:103C2000042262F302038DF84A300123CAE08DF8C2
:103C30004B30B31C04939DF84930D90740F1FD8007
:103C400054F8048BB8F1000F07DA9DF8482042F0D1
:103C500004028DF84820C8F100085A0740F1F680A8
:103C600054F804BBBBF1000F80F2F5809DF8493099
:103C70006FF341038DF849304FF0FF3BEBE02D2A05
:103C80000DD0302A7FF444AF012333E74FF0010C0D
:103C900030E74FF0010E2DE74FF001082AE7012031
:103CA00028E709A8FFF79AFE099BBB423FF474AFCF
:103CB0009DF848201390C00F60F341028DF8482012
:103CC0006AE709A8FFF78AFE9DF848301490C3F30D
:103CD000400242EAD07262F341038DF84830099BFA
:103CE00073E7742A26D07A2A7FF47EAF9DF84920A4
:103CF00006210CE05A78682A9DF8492006D1012156
:103D000061F3C6028DF8492002336DE7022161F3A9
:103D1000C6028DF84920013366E75A786C2A9DF86F
:103D2000492001D10421EBE70321F0E79DF8492068
:103D30000521ECE79DF849200721E8E7BDF8482078
:103D400022F4F04222F0020242F4804242F00202E7
:103D5000ADF84820DFE76E3BD9B201238B4040F23B
:103D600082410B4238D113F0240F52D1DF075DD5C9
:103D70009DF84A30032161F302038DF84A3002F0C6
:103D80007803A3F14000434243411BE0A3F15801F3
:103D9000C9B2012000FA01F111F4624F7FF43EAF85
:103DA00040F6010739421DD111F4043F3ED09DF881
:103DB0004A3060F3020302F07802402A8DF84A305C
:103DC00034D000239DF84820C2F340010B4363F335
:103DD00041028DF848202EE79DF84A30022161F318
:103DE0000203E8E79DF84A10022002F0780260F32F
:103DF0000201402A8DF84A1002BF9DF8481041F098
:103E000001018DF84810632BDBD1131E18BF01236D
:103E1000D8E79DF84A30032161F3020312F0780FCE
:103E20008DF84A3014BF01230023CBE79DF84830BA
:103E300043F001038DF84830C3E79DF94820002A7C
:103E4000B4BFDDF84C804FF0FF3806E79F077FF5E1
:103E500013AFDDF850B09DF849100023CDE91333BE
:103E60009DF84A3003F00703012BC1F3C30132D19F
:103E7000CB1E042B04D8DFE803F0204545202000AA
:103E8000236801294FEAE372CDE910321BD19DF975
:103E90004030DA17CDE9103204349DF8483013F081
:103EA00003074FD0049B0398324651460AF0E3FAC9
:103EB0000028C0F25A8105440BE654F8043BDA1797
:103EC000CDE91032E9E70229E6D11AB243F3C03353
:103ED000CDE91023E0E7022B24D1CB1E042B04D81C
:103EE000DFE803F0181010181800012954F8043BFB
:103EF0004FF0000214D00229CDE91032CDD19BB28F
:103F00001093CAE7073424F00704F4E80223CDE94C
:103F10001023C2E754F8043B109300231193BCE72D
:103F2000DBB2CDE7042B08D1073424F00704D4E931
:103F300000230834CDE91023AFE7032BADD154F8AB
:103F4000043BDDE79DF84B0078283FF6C2AD6228C0
:103F50001ED8252850D058287FF4BBAD0DF13E0364
:103F60000093DDE910010AAB12AAFFF74DFDBBF18A
:103F7000000F814680F2C280B9F1000F3FF4A9AD75
:103F80000DF13E06A6EB0903002F7BD0013379E04B
:103F9000633815283FF69DAD01A252F820F000BF0E
:103FA00073400008D1400008D33A0008D33A000813
:103FB000D33A0008D33A0008D1400008D33A0008A9
:103FC000D33A0008D33A0008D33A00081F4100084A
:103FD000F740000831400008D33A0008D33A0008FF
:103FE00009400008D33A0008F7400008D33A000817
:103FF000D33A0008F7400008039B51469847002831
:10400000C0F2B380013564E5BBF1000FDDF84090EC
:104010000ADB5946484605F00FFEB9F1000F3FF4A0
:1040200058AD09EB000620E04846FCF7E9F8F8E750
:104030001098002800F087800DF13E060AAB00962C
:1040400012AA0021FFF7E0FCBDF84A3003F0EF03AD
:1040500043F4F04343F01003BBF1000F8146ADF889
:104060004A304ADA00283FF434ADA6EB09030027B2
:1040700008E0109B8DF8283000270DF129060DF17E
:10408000280901239DF84A1011F01002069260D011
:104090000233139A059213444A0644BF14995B18DD
:1040A000B8F1000F6EDDA8EB03089DF84830580703
:1040B000C3F3800B66D459065AD53FB1039B5146D2
:1040C00038469847002850DB01355F46302350E0E2
:1040D0001E075CBFC3F300135F01DDE9102348BF77
:1040E0002B27002BBFF63AAF524263EB4303CDE9D7
:1040F00010232D2732E7002730E700279DF84810CE
:104100000DF13E03A3EB09036FF386119B458DF878
:1041100048107FF631AFABEB030313932CE7109BF2
:1041200007293FF6D6ACDFE801F00C04060C0808BE
:104130000C0C1D70CDE41D80CBE4EA17C3E90052DE
:10414000C7E41D60C5E4314E0746A6F10509052305
:1041500098E7080748BF01339BE718460793514685
:10416000039B98470028079B04DA17B0BDE8F08F3F
:104170002023C346594600290BF1FF3BEDDC4544A3
:104180006D1AD84637B1039B5146384698470028E8
:10419000EBDB01359DF84A30DA0601D41B0706D562
:1041A000039B5146302098470028DEDB0135069BF3
:1041B0003BB19DF84B00039B514698470028D4DB48
:1041C0000135059F2F4406E0039B51463020984758
:1041D0000028CADB01357B1B002BF5DC0398334636
:1041E0004A4651460AF047F90028BEDB0544A84478
:1041F000A8EB0503002B7FF76CAC039B51462020F6
:1042000098470028B1DB0135F2E700BF042301081D
:10421000034A536823F0020353600020704700BF35
:10422000002004E0084B1A6842F480721A601A6891
:1042300042F400721A601A6842F480621A60034BFA
:10424000034A1A60704700BF003C02404C07002040
:104250000024F4002DE9F047DFF8588004460746B3
:104260004FF0010914B93846BDE8F08794FAA4F577
:10427000B5FA85F509FA05F32E0108EB05156FEA85
:10428000030A24EA03042B7B002BEBD058F80630FA
:104290001B694BB94644042273682846196807EA2B
:1042A0000A070AF0D7FCDDE7284698470028D9D14D
:1042B000F0E700BF3417010830B51049104889B045
:1042C00000220CF01BFE0F4D0F4900220023CDE908
:1042D000062300240E23CDE90334CDE901440B4B22
:1042E00000944FF44072284604F0BEF8084928466E
:1042F0000CF09FFC204609B030BD00BF15430008FC
:10430000080F0020800A0020C01400203146000859
:1043100019230108014803F0D5BF00BFB4090020EC
:104320002DE9F047804620480F460AF06BFC064610
:10433000002832D000252846BDE8F087237B83B1D2
:104340002368DB680BB120469847636883F80690C2
:1043500023681B69CBB963680422196820460AF0F8
:1043600079FC013610345445E8D3B8F1000FE2D09F
:10437000002DDFD02846FFF76DFF0546002FF7D050
:10438000002164200CF007FDF2E720469847002842
:10439000E1D009FA06F31D43E3E7044CDFF810A06F
:1043A00005464FF00109DEE790110020341701089F
:1043B00044170108014B53F8200070478C1801087E
:1043C00008B5034608462BB1044A136000F074FC9C
:1043D000002008BD6FF01500FBE700BFB00600200D
:1043E00010B5044C237813B9034803F06BFF012385
:1043F000237010BD84140020B409002010B50446B9
:104400000B480AF0FFFB5CB1BFF35B8F094B53E82D
:10441000001F013943E80012002AF8D1BFF35B8F77
:1044200005480CF077FD0548BDE8104003F04ABF91
:10443000881100208C110020080F0020B4090020F2
:104440000020064BBFF35B8F014653E8000F43E8A3
:104450000012002AF9D1BFF35B8F7047881100204A
:1044600070B5FFF7EDFF084C084E0546B44200D387
:1044700070BD63685B792BB123685B6813B1294613
:10448000204698471034F1E7341701084417010813
:1044900010B5044C044920460AF007F9034B1C6090
:1044A00010BD00BF140900207818010880110020F9
:1044B0000D4A0E48002310B513700D4A13600D4AC3
:1044C0004FF47A711360FFF77BFFFFF7E1FF0A4BB0
:1044D0000A4918468B4200D310BD1A1A5C681211A3
:1044E000013222711033F5E7851400201FEC00081B
:1044F000881100208C11002034170108441701088E
:1045000001460022014800230AF0F0B814090020F7
:1045100001480AF089B900BF14090020024B014686
:1045200018680AF0D5B900BF8011002001480AF0D0
:104530000ABA00BF1409002070B5264B187800286D
:1045400046D0FFF7E5FF054600283ED1224B234C1D
:104550001B68002B12DD0CF089FC0A220023FCF7FB
:10456000ADFCD4E90032C01A40F2E93361EB02013C
:10457000984271F1000101D3FFF772FFD4E90032D4
:1045800013F57A7342F10002C4E90032BDE87040CD
:10459000FFF7CCBF63685B7923B1236829461B68AA
:1045A000204698471034B442F4D32846FFF7B6FFAC
:1045B000BFF35B8F0A4B53E8001F013943E8001239
:1045C000002AF8D1BFF35B8FC0E7064C064EEAE73E
:1045D00070BD00BF8414002088110020000F00204F
:1045E0008C110020341701084417010870B50D4DD7
:1045F000297861B90120FFF793FE0B4C0B4EB442B2
:1046000006D3FFF799FF0028FBD101232B7070BD63
:1046100063685B791BB1236820469B689847103418
:10462000EDE700BF85140020341701084417010886
:1046300000212DE9F0470846FFF772FE044648B313
:104640004FF4FA784FF0000904F0CEF91A4B1860D5
:1046500030B11A4B1B68092B02DD194803F032FEFA
:10466000184FDFF85CA0002544B12046FFF7F2FDAB
:10467000044618B94FF0FF384FF0FF39FFF75CFFE1
:10468000064628B9B5B942464B46504603F04EFEA1
:104690003546E9E74FF0FF384FF0FF39D4E72B6894
:1046A0009B691BB100221146284698471035BD4230
:1046B000F5D3E8E7044DFAE7841100208C110020BF
:1046C000B4090020441701083417010813B518482D
:1046D0000AF098FA174B1B7873B1EFF3118410238B
:1046E00083F31288BFF36F8FFFF726FF84F31188DF
:1046F000BFF36F8F02B010BD0F4B1B68002BF9D0BA
:1047000050B900220023CDE900230C4842F2107278
:10471000002304F06BFCEDE70928EBD107480CF00F
:10472000F9FB074802B0BDE8104003F0CBBD00BF65
:104730008C1100208514002084110020080F002017
:10474000B409002010B5064B1B6804469847214663
:10475000A06004480AF049F8BDE81040FFF7B6BF72
:10476000B006002014090020044A054B9B1AB1EB47
:10477000D30F34BF52F8310000207047AC16010847
:10478000341701082DE9F04F8FB004AFC1F34A2868
:10479000B8600D4691467B600C0DB8F1000F63D0F8
:1047A000002607F114034FF0040B4FF00A0AC7F874
:1047B0000C80C7E907667E620193CDF808B0CDF89A
:1047C00000A007F11C03F96832464846FEF704FFD3
:1047D000B0F5006F03461CD36C468AB0D9F80410BC
:1047E00004AB2648C3E9050140F2FF71D9611A46BE
:1047F0004FF400711984224B42F8103F2148334690
:104800004FF41251FFF7BEFFA5462C37BD46BDE859
:10481000F08FC0F30A0804F11700184420F00700D5
:1048200080083B60FFF76CFE68F35325044690B1A7
:104830003B68154AC7E9083600F1100107F1140377
:10484000F961CDE900A3CDF808B0F96807F11C03C0
:104850004846FEF7C1FE68F353257B68B9682A46CF
:1048600020460AF017FAD0E704F1170020F00700FD
:104870008008FFF745FE0446EDE700BF2E23010840
:1048800004000001DC16010867EC00082DE9F04F78
:1048900087B0DDE91279DDE9105A044603919346A9
:1048A0009846BFB1CDF800903B46524610210020FB
:1048B000CDF81490FEF7BEFCB0F5006F06460AD3A3
:1048C000184A194840F2FF73022107B0BDE8F04FC3
:1048D0000AF039BA3E4605F11700304420F00700CF
:1048E00004F007048008FFF70BFE0BF0070BE40051
:1048F00044EA8B1444EA462444EA0554054640B190
:104900003FB1CDF800903B46524631461030FEF79D
:1049100091FC039943462246284607B0BDE8F04F74
:104920000AF0B8B96D230108DC160108406820B10F
:10493000034BC01A40F3CF0070474FF0FF30704771
:10494000AC1601080EB403B503AB014653F8042BB3
:10495000044801930AF01CFA02B05DF804EB03B0BE
:10496000704700BF9FED0008CA0605D48B064CBFF8
:1049700002490349FFF7E6BF704700BF2322010841
:10498000222201082DE9F04F89B09A46149B069324
:104990009DF84CB0159B0593169B179E04930446F7
:1049A0000D469046BBF1000F00F09D8006F4807329
:1049B00007930AF04DF906F00209024600283ED09E
:1049C00092492046FFF7BEFF0746B9F1000F08D015
:1049D00016F0440F35D18E492A462046FFF7B2FF24
:1049E000074406F0010353B18A4B8B4953F82B203F
:1049F0008A4B2046002A08BF1A46FFF7A3FF06F499
:104A00008073002B49D006F00803002B63D1B8F166
:104A1000000F66D0824942462046FFF793FF0546C5
:104A2000069B3D44002B6DD1049B002B73D1F307F3
:104A300000F1E58031462046FFF796FFD9E00746B2
:104A4000C3E7784B18680028CAD0774B4FF47A79BF
:104A50001B68B5FBF3F54FF46163B5FBF0F100FBA8
:104A6000115509FB05F54FF03C0CB1FBF3F203FBCC
:104A70001211B5FBF0FEB1FBFCF300FB1E550CFB65
:104A8000131109FB05F50091B5FBF0F56749CDE978
:104A900001E52046FFF756FFA2E706F00803EBB159
:104AA000634B644953F82B202046FFF74BFF054624
:104AB000B8F1000F05D05A4942462046FFF742FFA1
:104AC0000544BAF1000FABD05B4952462046FFF7D0
:104AD00039FF0544A4E74FF0000AE1E706F00805B6
:104AE000E6E745469CE7BAF1010F069B06D1002B8D
:104AF00065D1049B002B7CD000250CE0002BF8D066
:104B00004E485DE04E48069B4E49224609F025FC82
:104B1000049B002B69D0DFF83081DFF83091049FCF
:104B20003146102F204628BF1027FFF71DFF4FF0FA
:104B3000000A554546DC059B49461A782046FFF792
:104B400001FF4FF0010A1AF0070F03D1414620463A
:104B5000FFF7F8FE57453CD9059B494613F80A2054
:104B60002046FFF7EFFE0AF1010ABAF1100FEAD171
:104B7000374920464FF0000AFFF7E4FE5246059BF6
:104B80009A5C344B995C11F0970F08BF2E22324982
:104B90002046FFF7D7FE0AF1010ABAF1100F1DD027
:104BA0001AF0070F03D141462046FFF7CBFE5745C9
:104BB0005246E4D841462046FFF7C4FEEBE72048C2
:104BC0005D46A0E741462046FFF7BCFE0AF1010A18
:104BD000AFE722492046FFF7B5FEC4E7059B3B44FB
:104BE0000593049BDB1B049399D1BBF1000F7FF469
:104BF0001EAF204609B0BDE8F04F0AF0BCB8074A26
:104C000005492046FFF79EFE14E700BFAA230108CE
:104C1000AE2301089C180108B0210108A523010852
:104C2000D32301089811002094110020B723010814
:104C3000B0180108D7230108DD230108D5ED0008CD
:104C40009FED000891ED0008EA230108E223010826
:104C5000EC2301081D1C0108EE230108E8230108CC
:104C600073B542F20F738B4228BF0B4605680F4A9B
:104C700004460521684609F0E7FB63680C495B6858
:104C800006460B2228460AF068F8636832466946F1
:104C900028465B680AF061F8636806495B681B2276
:104CA00028460AF05AF802B070BD00BF712B010807
:104CB0000D240108F1230108074A00210123904235
:104CC00006D8064A01B901231360054B18607047E6
:104CD00040085B000121F2E740420F0094110020E0
:104CE00098110020F8B5074F0D4604464618B44207
:104CF00001D12846F8BD14F8011BBB6801485B6868
:104D00009847F4E7EC110108014B0360002070475D
:104D1000F81801082DE9F047064600AF0C460029B7
:104D200036D0E9468AB0D1E90012A3686D46214821
:104D3000A8464FF0050AC5E90501C5E9072348F86B
:104D400010AF1D48424600234FF42151FFF71AFDD2
:104D5000CD46D4E903126369AD461848C5F810A0E2
:104D6000C5E90501C5E907231348002342464FF46E
:104D70002151FFF707FDCD46E369114A0E48012195
:104D800009F0E1FFA3690F4A0B48012109F0DBFF9D
:104D9000012E07D1EFF305830B4A0748103B31463C
:104DA00009F0D1FF2146304602F0B8FFBD46BDE80C
:104DB000F08700BF53240108FC1601088224010873
:104DC000B1240108C0240108EE24010830BFFFF718
:104DD000FDBF00BF054B5A699B689A421FBF044A3A
:104DE000536843F080535360704700BF2014002085
:104DF00000ED00E070B5294C06460D4628482949CB
:104E00000AF06FF8A36AD9043CD5254826490AF070
:104E100068F81720A36A1A0504D5214823490AF027
:104E200060F818201D4CA36A9B0512D51C48204928
:104E30000AF057F8A36BA26A100409D51D4A184856
:104E4000012109F080FF1EB1A36A23F40043A3628D
:104E50001920124CA36A590504D5114816490AF0C5
:104E600040F81A20A36ADA050ED50D4813490AF056
:104E700038F81B20094A936A43F47F439362002366
:104E80002B7070BD1620C5E7A36A9B04F2D50448B9
:104E90000B490AF026F81C20ECE700BF00ED00E00B
:104EA000FC1601080125010817250108282501081D
:104EB0003B250108542501086925010884250108BE
:104EC0009C25010810B5204C204921480AF009F81A
:104ED000A36A990136D51E481E490AF002F81E2021
:104EE000A36ADA0104D51A481B4909F0FAFF1F200A
:104EF000154CA36A1B0304D51548184909F0F1FFA6
:104F00002120A36A590304D51148154909F0E9FF86
:104F100022200D4CA36A9A0304D50D48114909F0CB
:104F2000E0FF2320A36ADB0304D509480E4909F0FA
:104F3000D8FF2420044A936A6FEA03436FEA1343BD
:104F4000936210BD1D20CBE700ED00E0CB250108EA
:104F5000FC160108E3250108F625010810260108C2
:104F60002E260108532601086D2601082DE9F84375
:104F7000364D8046894636483649174609F0B1FF16
:104F8000AB6ADE0627D53449314809F0AAFF11245F
:104F9000AB6A1D0704D531492D4809F0A2FF122440
:104FA0002A4DAB6A980718D52D49294809F099FF71
:104FB0006E6BAB6A190646D52A4A2548334601214D
:104FC00009F0C1FEB9F1000F03D0AB6A23F08003F2
:104FD000AB62132403E01024DAE76FF015061B4DD3
:104FE000AB6ADA0704D52049194809F07AFF14247E
:104FF000AB6A9B0604D51D49154809F072FF1524BC
:10500000124B9A6AD50602D49A6A90070AD55B6851
:10501000190507D54146304600F002FA10B180F379
:1050200009880224094B9A6A920642BF5A6A22F4FE
:1050300000525A629A6A42F0FF029A6200233B7061
:105040002046BDE8F8836FF01506C2E700ED00E0EA
:10505000FC16010898260108AE260108282501083B
:10506000E1260108F92601080F2701089C250108FF
:105070002DE9F041664B8AB0D3F8048000AF0446B6
:10508000C8F30805002686F31188BFF36F8F02F07E
:105090007F43B3F17F4F07D102F00C03082B12D1ED
:1050A0005C495D4809F01DFF002634460023FB7172
:1050B000EB1E092B00F28A80DFE803F00A80837C74
:1050C00088888888888610074CBF0C460126EDE743
:1050D000524951484E4D09F004FF0023FB71EB6A21
:1050E0009A0705D54E494C4809F0FBFE002332E0F3
:1050F000EB6A002B01DA4B49F5E7EB6A5B00F5D56B
:105100004949454809F0EDFE6B69A26943F4807393
:105110006B61BFF34F8FBFF36F8F6B6932F8022C57
:1051200023F480736B61BFF34F8FBFF36F8F4DF626
:1051300002739A4208D0AB6ADBB273B3FA1D012145
:105140002046FFF713FF37E02368384A3248012131
:1051500009F0F9FD2368FA79DAB907F1080504F1D5
:10516000200C206861682A4603C20834644515464D
:10517000F7D17A6A002E45D0C2F3080121B96FEA4F
:1051800052226FEA42227A6207F108011846FFF7BD
:10519000C1FD2837BD46BDE8F081AB6A13F47F4FEF
:1051A00004D0F91D0120FFF725FE05E0AB6AB3F539
:1051B000803F9BD3FFF786FE0346CCE7FA1D002114
:1051C000BEE7F91D0020EEE719498CE7194A1A4B92
:1051D00018F4F87FE8468AB018BF13466A461749A4
:1051E000C2E905134FF400731384103D144BD561CD
:1051F00042F8103F084800234FF41151FFF7C2FA5C
:10520000C54673E722F4FF7222F00102BBE700BF3C
:1052100000ED00E05C270108FC1601088727010863
:105220009E270108BF270108CD270108EC270108A8
:1052300008280108432701082E2701082C28010807
:1052400004000001044B5A6942F010025A615A6985
:1052500022F008025A61704700ED00E0EFF3088089
:10526000EFF3098101B57246FFF702FF01BD00BFF0
:105270000A4880F30888102080F3118808484FF40A
:105280000461401880F30988EFF314800221084379
:1052900080F31488BFF36F8F00F08AF80036002087
:1052A000401C0020084B9B6883420BD1EFF3058321
:1052B00043B1064B5A6842F080525A605A6A22F44F
:1052C00000425A6203F096BB2014002000ED00E07B
:1052D00012498A684FF030001044EFF3098C80E8DF
:1052E000F01F102080F31288BFF36F8F0C4F4FF028
:1052F00000664A698A603E60506F0023536780F3FE
:10530000118804B5104600F0EBF8BDE8044002F146
:10531000300090E8F01F8CF30988704720140020BB
:1053200004ED00E01EF0040F0CBFEFF30880EFF374
:105330000980816911F8021C0229FFD001B572466B
:1053400009F0C4FD01BD00BF40B2002807DB044ADC
:105350004109012300F01F00834042F821307047CB
:1053600000E100E040B20028A8BF00F1604001F178
:105370000101B8BF064B4FEA0111ACBF00F5614017
:1053800000F00F00C9B2B4BF195480F80013704781
:1053900014ED00E0044B054A23F07F039360BFF354
:1053A0004F8FBFF36F8F70470000000800ED00E0E3
:1053B00008B5FFF7EFFF0B4AD2F8883023F47003EB
:1053C000C2F88830EFF3148323F0040383F31488C6
:1053D000BFF36F8F02F08EFD03F02EFC00F056F845
:1053E00002F0CCFD00ED00E042F8203C009B42F8CA
:1053F0001C3C0A49019B42F8183C029B42F8143CB1
:1054000021F001014FF0807342F8043C42F8081C7F
:105410000023203A02654367704700BF63E4000839
:10542000094A0346906870B113F1160F406E05D01B
:10543000A0F140029A4205D8834203D2814228BF9C
:1054400000207047002070472014002008B50B4B47
:105450000E461546986000F043F82C4686F30988FE
:105460000020044B98472046002100220023024CD4
:1054700020470000F3EE000863E400082014002039
:10548000014B10221A61704700ED00E00448002330
:105490001021C2180133612B82F80013F9D1704733
:1054A00000E100E008B5EFF30583064A103B02EB8C
:1054B000C30152F8330049688847BDE80840FFF748
:1054C00089BC00BFCC120108024B034A03480121EA
:1054D00000F08AB80000022000000020F81801083F
:1054E000426E054B403A1A60044A4021C3E901125A
:1054F0001846012100F082B8C011002000000B15F1
:1055000008B503461048D0F89020C2F30722013AAC
:10551000934207D90D480E4A012109F014FC6FF09F
:10552000150008BDC0F898300A6822F01F021A431F
:1055300042F01002C0F89C208A6842F00102C0F8D4
:10554000A0201846EDE700BF00ED00E0F4160108CA
:1055500043280108F0B50E4685B01F4604460025D5
:10556000B5420DDA606810B397B1431E18420AD0F5
:10557000104A11482B46012109F0E5FB6FF0150296
:10558000104605B0F0BD1F28F2D921680B42EFD1BB
:105590002368019309F0C1FCA36801A90343D0B2B9
:1055A0000393FFF7ADFF10F1160FE7D0421C013552
:1055B0000C34D5E769280108F4160108044B0522CC
:1055C000C3F89420BFF34F8FBFF36F8F704700BFB6
:1055D00000ED00E0BFF35F8F024B0022C3F8942080
:1055E000704700BF00ED00E010B5034C01232278A6
:1055F000FFF7B0FF207010BD8714002008B50B4ADC
:1056000000231278FFF7A6FF10F1160F07D0084A03
:105610000021D2F89030C3F30723984200DB08BD85
:10562000C2F89800C2F8A0100130F2E787140020F9
:1056300000ED00E02DE9F04357485849D0F890308C
:105640000D68C3F307239D4285B000F2A180FFF7E8
:10565000C1FF49680022954201F10C011AD1504C5A
:10566000504F25706846FFF74FFBDFF83C81DFF8AD
:105670003C9106460025AE421FD1237846490020C2
:10568000D1F89020C2F3072293427BDBFFF796FF0D
:1056900000204CE0C0F8982051F80C3C23F01F0388
:1056A000134343F01003C0F89C3051F8043C43F01E
:1056B0000103C0F8A0300132CDE7009800EB0511DE
:1056C0004FEA051CCB683B40B3F5000F44D00AD825
:1056D000B3F5001F2ED0B3F5800F34D0B3F5801F83
:1056E00010D00135C7E7B3F1807F3ED0B3F1007F22
:1056F000F7D150F80C3088684A6809F00EFC40F485
:10570000802009E050F80C3088684A6809F005FCF0
:1057100040F0885040F43020039001A92078CDE972
:105720000123FFF7EDFE002828DA6FF0150005B021
:10573000BDE8F08350F80C3088684A6809F0EDFB4A
:1057400040EA0800E8E750F80C3088684A6809F039
:10575000E4FB40EA0900DFE750F80C3088684A684B
:1057600009F0DBFB40F08270D6E750F80C30886817
:105770004A6809F0D2FB40F08870CDE72378013306
:105780002370AEE7C1F89830C1F8A000013377E785
:105790004FF0FF30CBE700BF00ED00E00419010837
:1057A000871400200000F0FF00000811000002062E
:1057B000014B1860704700BFC0060020F8B5084FC5
:1057C00006460D460024AC4208DA3B6898470A2892
:1057D000305504F1010401D00D28F4D12046F8BD64
:1057E000BC060020F8B50A4F0D46461EC0F1010464
:1057F000A3199D4201DC2846F8BD73780A2B02D11B
:105800003B680D2098473B6816F8010F9847EFE773
:10581000C006002010B5074C2368C2180648C0F126
:10582000005101F500318A423ABF2260C0184FF0A2
:10583000FF3010BDCC1100202037002008B50548EE
:1058400008F0F5FD002383F31188BFF36F8F042365
:10585000184602DF9B2801082DE9F04F4788846B2A
:1058600087B007F01003064689460492029307F0BA
:105870000807824604F10C0BDAF80C3003933378F6
:10588000BAF80280012B40F09280758815F004056B
:1058900013D07369002B00F08880B26BD1690A794C
:1058A00089685B1A43FA02F53369D3406D4A02EA0C
:1058B000052545EA035545F00105DAF83430009333
:1058C000029B002B7FD09AF80030012B40F0B6806D
:1058D00018F0040F00F0B280002F6AD1CAE90477F3
:1058E00000220AF13003CAF83020EFF311821021B0
:1058F00081F31288BFF36F8F216A23620B6082F3FA
:105900001188BFF36F8F204609F09FFB18F020032A
:10591000019371D1D4F818A0504609F042FB0590CC
:10592000002800F08E800199102204F0D1F8BAF816
:105930000E10059B039A0139AAF80E10C3E902253F
:10594000019AC3F804901A60EFF31181102282F3D8
:105950001288BFF36F8FE26AE362136081F31188EC
:10596000BFF36F8FBFF35B8FDBF80030BFF35B8F4C
:105970005A1CBFF35B8F5BE8001F994203D14BE8D1
:1059800000200028F7D1BFF35B8FEBD163682BB108
:10599000013B636013B9206802F094FCA06802F038
:1059A00091FC29E0DDF800A066E71D467EE70025B2
:1059B00083E7DAE90431002C3AD000293BD0E069D2
:1059C00058BBCAE9040000216369CAF830100AF123
:1059D0003002EFF31181102080F31288BFF36F8F34
:1059E00018681A60026081F31188BFF36F8FDA893B
:1059F0000132DA81002F89D0049B002B08BF6FF0A1
:105A00008B0918F0020FCDD118F0010F27D00098A4
:105A100007B0BDE8F04F09F0EDBA13B9CAE9043395
:105A2000D1E7027923FA02F208F07BFC0023F5E7C4
:105A3000CAE90444C7E7CAE90411C4E7002FC2D188
:105A40004EE704F11003BFF35B8F53E8001F0131F1
:105A500043E80012002AF8D1BFF35B8F82E707B05A
:105A6000BDE8F08F00FF0F00F0B5214B214C002561
:105A70001026A34220D3204B204C00251026A34201
:105A800034D30020F0BD196901EB821101F130001F
:105A90000D63EFF3118186F31288BFF36F8F1F68D8
:105AA0001860386081F31188BFF36F8F01329989D4
:105AB0009142E8DC1433DCE70022F8E718691701AB
:105AC00000EB0211C551EFF3118086F31288BFF38A
:105AD0006F8F1F681960396080F31188BFF36F8F73
:105AE000013299899142E9DC1433C8E70022F8E7D2
:105AF000140A0020280A0020280A00203C0A00205E
:105B00000021C0E906110249183003F0DFB800BFD8
