:020000040800F2
:1000000080110020F1080008C52D0008DD08000857
:10001000DD080008DD080008DD0800080000000019
:10002000000000000000000000000000B10900080E
:10003000DD08000800000000510900080D18000844
:10004000390B0008390B0008390B0008390B000880
:10005000390B0008390B0008390B0008390B000870
:10006000390B0008390B0008390B0008390B000860
:10007000390B0008390B0008390B0008390B000850
:10008000390B0008390B0008390B0008390B000840
:10009000390B0008390B0008390B0008390B000830
:1000A000390B0008390B0008390B0008390B000820
:1000B000390B0008390B0008390B0008390B000810
:1000C000390B0008390B0008390B0008390B000800
:1000D000390B0008390B0008390B0008390B0008F0
:1000E000390B0008390B0008390B0008390B0008E0
:1000F000390B0008390B0008390B0008390B0008D0
:10010000390B0008390B0008390B0008390B0008BF
:10011000390B0008390B0008390B0008390B0008AF
:10012000390B0008390B0008390B0008390B00089F
:10013000390B0008390B0008390B0008390B00088F
:10014000390B0008390B0008390B0008390B00087F
:10015000390B0008390B0008390B0008390B00086F
:10016000390B0008390B0008390B0008390B00085F
:10017000390B0008390B0008390B0008390B00084F
:10018000390B0008390B0008390B0008390B00083F
:10019000390B0008390B0008390B0008390B00082F
:1001A000390B0008390B0008390B0008390B00081F
:1001B000390B0008390B0008390B0008390B00080F
:0401C000390B0008EF
:1001C40053B94AB9002908BF00281CBF4FF0FF31BA
:1001D4004FF0FF3000F00CB8ADF1080C6DE904CE1F
:1001E40000F008F8DDF804E0DDE9022304B070470C
:1001F400704700BF2DE9F04786468C460846089EA6
:10020400154674461946002B40F0C2808542B2FA66
:1002140082F245D94AB1C2F1200300FA02FC2EFA57
:1002240003F3954043EA0C0C94404FEA154EA8B2F0
:10023400BCFBFEF8230C0EFB18CC08FB00F943EAC8
:100244000C43994528D9EB1808F1FF3704D2994596
:1002540002D9A8F102072B44A3EB0903A4B2B3FB10
:10026400FEFC0EFB1C330CFB00F044EA0344A042EA
:1002740014D92C190CF1FF3304D2A04202D9ACF1E9
:1002840002032C44241A43EA07401EB1D44000233D
:1002940034607360BDE8F0874746DDE76346F1E705
:1002A40092BB431B01214FEA154EAFB2B3FBFEFCD8
:1002B400200C0EFB1C330CFB07F840EA0343984563
:1002C40062D9EB180CF1FF3004D2984502D9ACF195
:1002D40002002B44A3EB0803A4B2B3FBFEFC0EFB09
:1002E4001C330CFB07F744EA0344A7424ED92C19EC
:1002F4000CF1FF3304D2A74202D9ACF102032C441F
:10030400E41B43EA0040C0E7C2F1200320FA03F1F2
:10031400954090402EFA03F303434FEA154EAFB2D3
:10032400B1FBFEFC0EFB1C10190C0CFB07F841EA98
:100334000041884504FA02F422D969180CF1FF300F
:1003440004D2884502D9ACF102002944A1EB08018A
:100354009BB2B1FBFEFC0EFB1C110CFB07F743EA3E
:1003640001439F420ED9EB180CF1FF3104D29F4296
:1003740002D9ACF102012B44DB1B41EA004192E7B4
:100384006046E3E76146F7E76046A3E76346B7E7FD
:10039400834206D916B9002108467BE7C6E900E086
:1003A400F9E7B3FA83F78FB9834201D3724508D8CA
:1003B400BEEB020460EB030301209C461EB900213E
:1003C40068E73846FAE7C6E9004CF8E7C7F1200CBD
:1003D400BB4022FA0CF41C432EFA0CF120FA0CF365
:1003E400B84001434FEA14490EFA07F5B3FBF9F894
:1003F4001FFA84FE09FB18300B0C08FB0EFA43EAC3
:1004040000439A4502FA07F240D9E31808F1FF3095
:1004140004D29A4502D9A8F102002344A3EB0A03AB
:1004240089B2B3FBF9F809FB183308FB0EFE41EA65
:1004340003418E452CD9611808F1FF3304D28E454F
:1004440002D9A8F10203214443EA0040A0FB029828
:10045400A1EB0E014145CE46434602D306D14D459C
:1004640004D2B9EB020E68EB04030138002EA6D0C7
:10047400B5EB0E0261EB030101FA0CFC22FA07F35F
:100484004CEA0303F940C6E9003198E74046C5E762
:100494004346D9E7F8B5174D284602F0F6FF04465F
:1004A40030B32A69A968136823F0200313600B682A
:1004B4004FF42022052128469847002818DB0E4FC8
:1004C4000E4EAB6820215B692846984700280FDB55
:1004D40084F0010414F0FF0414BF3946314608487F
:1004E40002F07CF9002142F2107003F04CF8E8E7C6
:1004F4000020F8BD28390008563E0008593E00087F
:100504005D3E0008014B1B68184700BF0000002037
:10051400014B1860704700BF0000002030B585B063
:1005240004460D4610220021684603F0A5F8022374
:100534008DF802302A46044B01932146684602F0A6
:100544005FF905B030BD00BF0905000880B5054658
:100554000E461746984601F0C1FE034603F0F8F82C
:10056400DFF81890044649F80030424630463946D0
:10057400A84754F8090000F0D3F900BF08000000B0
:10058400034A536823F0020353600020704700BFFE
:10059400002004E0084B1A6842F480721A601A685A
:1005A40042F400721A601A6842F480621A60034BC3
:1005B400034A1A60704700BF003C02402400002038
:1005C4000024F400014B036000207047D43C000871
:1005D40030BFFFF7FDBF00BF2DE9F0410B4EDFF840
:1005E400308006EB0807CC1B0546324609492046F5
:1005F40003F034F8A01942460021083C03F03CF80B
:100604002C6707F10800BDE8F08100BF000000007E
:1006140004000000D43C0008054B5A699B689A42C8
:100624001FBF044A536843F080535360704700BFB0
:100634005803002000ED00E070B5264B15469A6A79
:1006440012F0100F9A6A14BF1124102412F0080F2C
:100654009A6A18BF1224920706460AD5586B9A6AFA
:10066400140634D519B19A6A22F080029A621324CE
:1006740001E06FF01500174B9A6A12F0010F9A6AA5
:1006840018BF142412F0200F9A6A18BF1524D2063A
:1006940002D49B6A9B070AD50E4B5B68190506D5E5
:1006A400314600F001FA10B180F309880224094BA5
:1006B4009A6A920642BF5A6A22F400525A629A6AAD
:1006C40042F0FF029A6200232B70204670BD6FF047
:1006D4001500CCE700ED00E0134B9A6A12F0007F9E
:1006E4009A6A14BF1E201D2012F0807F9A6A18BFD8
:1006F4001F2012F4002F9A6A18BF212012F4802FB1
:100704009A6A18BF222012F4003F9A6A18BF232065
:1007140012F4803F9A6A6FEA02426FEA12429A62C6
:1007240018BF2420704700BF00ED00E010B5194B3E
:100734000246986A9C6A10F4805F14BF1720162042
:1007440014F4006F9C6A18BF1820A40509D5986B8F
:10075400986A000404D51AB19A6A22F400429A6293
:1007640019200C4B9A6A12F4806F9A6A18BF1A20E7
:10077400D2050CD49B6A13F4005F18BF1C20054AF1
:10078400936A43F47F43936200230B7010BD1B20D4
:10079400F5E700BF00ED00E0F0B5484B5B688BB0B7
:1007A4000446C3F30803002585F31188BFF36F8F54
:1007B40002F07F40B0F17F4F11D102F00C00082805
:1007C4000DD010074CBF0C4601250022033B8DF8C9
:1007D4000720032B05D8DFE803F0246367602C4669
:1007E400F3E700239DF80720CAB902AE04F12007FD
:1007F40020686168324603C20834BC421646F7D109
:10080400099A002D54D0C2F3080121B96FEA52228B
:100814006FEA4222099202A9184602F0C7FA0BB005
:10082400F0BD264BDA6A9107DBD4DA6A002AD8DBFA
:10083400DA6A5200D5D55A69A16942F480725A61C4
:10084400BFF34F8FBFF36F8F5A6931F8021C22F444
:1008540080725A61BFF34F8FBFF36F8F4DF60272F0
:1008640091420AD09A6AD2B24AB10DF1070201212B
:100874002046FFF7E1FE0346B4E72368B2E79A6A2D
:1008840012F47F4F05D00DF107010120FFF74EFF51
:10089400F1E79B6AB3F5803FA3D3FFF71DFFEAE7B7
:1008A4000DF107020021E3E70DF107010020EDE758
:1008B40022F4FF7222F00102ACE700BF00ED00E079
:1008C400044B5A6942F010025A615A6922F0080234
:1008D4005A61704700ED00E0EFF30880EFF30981FF
:1008E40001B57246FFF758FF01BD00BF0A4880F307
:1008F4000888102080F3118808484FF404614018D8
:1009040080F30988EFF314800221084380F31488EC
:10091400BFF36F8F00F090F880110020C003002017
:10092400084B9B6883420BD1EFF3058343B1064B1D
:100934005A6842F080525A605A6A22F400425A625B
:1009440001F0D2BC5803002000ED00E014498A688D
:100954004FF030001044EFF3098C80E8F01F1020B2
:1009640080F31288BFF36F8F0E4F4FF000664A6911
:100974008A603E60106F0C4C2060506F00235367F8
:1009840080F3118804B5104600F0F2F8BDE8044085
:1009940002F1300090E8F01F8CF3098870470000E2
:1009A4005803002004ED00E0100200201EF0040FA4
:1009B4000CBFEFF30880EFF30980816911F8021C82
:1009C4000229FFD001B5724602F0F6F901BD00BF5D
:1009D40040B2002807DB044A4109012300F01F004C
:1009E400834042F82130704700E100E040B2002823
:1009F400A8BF00F1604001F10101B8BF064B4FEA06
:100A04000111ACBF00F5614000F00F00C9B2B4BFE2
:100A1400195480F80013704714ED00E0044B054AA4
:100A240023F07F039360BFF34F8FBFF36F8F704743
:100A34000000000800ED00E008B5FFF7EFFF0B4AE7
:100A4400D2F8883023F47003C2F88830EFF31483AB
:100A540023F0040383F31488BFF36F8F01F054F978
:100A640001F064FD00F05AF801F092F900ED00E0A5
:100A740042F8203C009B42F81C3C0A49019B42F886
:100A8400183C029B42F8143C21F001014FF08073A2
:100A940042F8043C42F8081C0023203A02654367EC
:100AA400704700BF51050008094A0346906870B1B9
:100AB40013F1160F006E05D0A0F140029A4205D83A
:100AC400834203D2814228BF002070470020704730
:100AD4005803002008B515460B4A0C4B9060026F72
:100AE4001A600E4600F044F82C4686F3098800206C
:100AF400034B98472046002100220023014C204745
:100B0400DB2D0008510500085803002010020020C6
:100B1400014B10221A61704700ED00E004480023E5
:100B24001021C2180133612B82F80013F9D17047E8
:100B340000E100E008B5EFF30583064A103B02EB41
:100B4400C30152F8330049688847BDE80840FFF7FD
:100B540063BD00BF68390008024B034A0348012102
:100B640000F076B80000022000000020D43C000809
:100B7400026E054B403A1A60044A4021C3E901124F
:100B84001846012100F06EB81402002000000B1575
:100B9400084AC2F898000B6823F01F03034343F08C
:100BA4001003C2F89C308B6843F00103C2F8A030F4
:100BB400704700BF00ED00E02DE9F043DFF86080EE
:100BC40085B00E461F4604464FF00009B14523DAAE
:100BD4006068D8B13FB1411E08421BD11F2819D902
:100BE4002368194216D12368019302F008F9A36817
:100BF40003430393D8F89050C5F30725D0B2013DC1
:100C0400A84207D801A9FFF7C3FF421C09F1010953
:100C14000C34DBE76FF01502104605B0BDE8F08335
:100C240000ED00E0044B0522C3F89420BFF34F8F7E
:100C3400BFF36F8F704700BF00ED00E0BFF35F8F1D
:100C4400024B0022C3F89420704700BF00ED00E07F
:100C540010B5034C01232278FFF7AEFF207010BDBE
:100C64008403002008B50B4A00231278FFF7A4FF81
:100C740010F1160F07D0084A0021D2F89030C3F3C0
:100C84000723984200DB08BDC2F89800C2F8A01000
:100C94000130F2E78403002000ED00E02DE9F04389
:100CA400534B544CD3F890302568C3F307239D422B
:100CB40085B000F29A80FFF7C1FF00200C26854220
:100CC4001AD14D4C4D4F25706846FFF77BFCDFF879
:100CD4002081DFF82C9106460025AE4213D12378FB
:100CE40043490020D1F89020C2F30722934276DBD7
:100CF400FFF798FF002042E0616806FB0011FFF750
:100D040047FF0130DBE7009800EB05114FEA051CB3
:100D1400CB683B40B3F5000F48D00AD8B3F5001FA9
:100D240030D0B3F5800F36D0B3F5801F10D0013525
:100D3400D3E7B3F1807F42D0B3F1007FF7D150F80D
:100D44000C3088684A6802F05AF840F4802009E0C0
:100D540050F80C3088684A6802F051F840F0885026
:100D640040F43020CDE901230390D8F89030207866
:100D7400C3F30723013B98422AD96FF0150005B04D
:100D8400BDE8F08350F80C3088684A6802F037F800
:100D940040EA0900E6E750F80C3088684A6802F037
:100DA4002EF840F0C06040F40030DBE750F80C301F
:100DB40088684A6802F023F840F08270D2E750F85D
:100DC4000C3088684A6802F01AF840F08870C9E765
:100DD40001A9FFF7DDFE237801332370A7E7C1F8EB
:100DE4009830C1F8A00001337CE74FF0FF30C6E72C
:100DF40000ED00E0E03C0008840300200000F0FF68
:100E04000000081108B5024B1B689847002008BD74
:100E140020020020034B044A1860937843F0020335
:100E240093707047200200200400002008B5064992
:100E3400064821F00701C1F1005202F5003201F029
:100E440068FF002008BD00BFC71100202402002055
:100E54002DE9F041104E114F054600244FF00108D2
:100E64002B7871691A19D2B208FA02F201EA020067
:100E74008A4309D153FA84F3706157F833201AB1C5
:100E840007EBC303596890476A780134E3B29A4286
:100E9400E6D2BDE8F08100BF003C014030020020F2
:100EA400044B184400230133994200F8012BFADC67
:100EB400704700BF3400002007B50622012100203E
:100EC400FFF7EEFF002211460620FFF78FFD0121F8
:100ED40008460722FFF7E4FF002211460720FFF728
:100EE40085FD082201210220FFF7DAFF00221146C6
:100EF4000820FFF77BFD092201210320FFF7D0FF23
:100F0400002211460920FFF771FD0A220121042065
:100F1400FFF7C6FF002211460A20FFF767FD0521EF
:100F240008461722FFF7BCFF002211461720FFF7DF
:100F34005DFD282206210A20FFF7B2FF0022114698
:100F44002820FFF753FD4FF4804307484422CDE99E
:100F5400002383681B6823B16946984703B05DF892
:100F640004FB6FF05700F9E7E8370008034660B167
:100F7400B0FA80F2C2F11F02D2B205498856054A7E
:100F840011680B431360FFF723BDFF22F5E700BF91
:100F940034000020003C0140024A136823EA0003A5
:100FA40013607047003C0140032921D8DFE801F0B9
:100FB400020C10190F4B9A6822EA00029A60DA6850
:100FC40022EA0002DA6070470A4B9A680243F5E7A6
:100FD400084BDA680243DA609A6822EA00029A60EF
:100FE4007047044B9A6802439A60DA681043D860E9
:100FF400704700BF003C014030B5B0B1B0FA80F397
:10100400C3F11F03DBB20B4850F833408C4204D1C8
:1010140000EBC3056D68954205D044B940F8331020
:1010240000EBC3004260002030BDFF23EBE76FF00C
:101034000F00F9E73002002060B1B0FA80F3C3F189
:101044001F03DBB2044A002142F8331002EBC3024F
:1010540051607047FF23F5E73002002000F00302DF
:10106400043292000F23934043EA9000C3B2023348
:10107400054A52F82320030C02EA104093FAA3F322
:10108400B3FA83F3D84070470038014038B5088874
:10109400254BC0F30B0007281B680D46144614D8D3
:1010A40010B96FF0850038BD0238052806D8DFE88E
:1010B40000F03203323020284FF4FA4323602968C9
:1010C400B1F5805F29D20020EDE744280ED82F28FF
:1010D400E7D900F57D61C1F30B0101228A40134970
:1010E4000A42EBD14028DCD15B08E7E7A828E5D029
:1010F400D7E700F0B1F84FF4C072C30853439B081C
:10110400DCE700F0A9F84FF4C072C3085343DB08CE
:10111400D4E7074BD2E70023D0E7C1F31331013101
:10112400B3FBF1F32360CEE724000020110110008B
:1011340000127A0070B5444D444C00F0B5F82846CE
:1011440001F01BFF00F02AFCA368414AC3F3031318
:10115400D35C20FA03F613781D41AE4202D228462E
:1011640000F064FC236843F480232360236843F481
:1011740080332360354B1A689103FCD55A6F42F0D3
:1011840001025A675A6F9207FCD59A6802F00C0262
:10119400082A17D11A68940707D41A6842F0010282
:1011A4001A602A4A13689807FCD5284B9A6822F0DB
:1011B40003029A609A6812F00C0FFBD19A6822F02D
:1011C400F0029A60214C236823F080732360236823
:1011D4009901FCD4636823F4403343F4803363609F
:1011E400636823F0706343F00063636000F038F8D1
:1011F400236843F080732360144B1A689201FCD572
:101204009A6822F0F0029A609A6822F0030242F08F
:1012140002029A609A6802F00C02082AFAD1AE42DD
:1012240002D3284600F002FC0A4B074A1A60074A18
:10123400936823F4E05343F480539360936823F456
:1012440060439360002070BD00D8B80500380240A8
:10125400473F0008240000200048704700127A002D
:101264000C4B0D495A6811400C4A0A435A605A689B
:101274000B4922F4403242F480325A605A6822F018
:10128400E04242F480325A605A681140054A0A43E7
:101294005A607047003802400080BFFF0860400079
:1012A4000080BFF008604008064B1A6C42F0805280
:1012B4001A641B6C82B003F080530193019B02B04B
:1012C400704700BF0038024008B5074802F0DDF857
:1012D40038B10648FFF79EFD0448FFF719F90020CE
:1012E40008BD6FF01200FBE748390008F51200084A
:1012F4000A2838B5074D044604D1AB680D215B6854
:1013040028469847AB6803485B68E1B29847204693
:1013140038BD00BF483900082DE9F843D0F80480EF
:10132400D0F81090D8F8080017460D461E4601F074
:101334007BFDB7F5001F044616D12846D8F80840AF
:10134400FFF78CFE84420CD1294601F06DFD044662
:10135400FFF722FE2046FFF76FFE00212046FFF72D
:1013640023FE0020BDE8F883B7F5800F20D0B6F146
:10137400806F19D0B6F1C06F18D0B6F1007F1AD1C2
:10138400022610494A462046FFF736FEB0B9D8F87F
:101394000810284601F04BFD20463146FFF704FEB5
:1013A4002046FFF7E3FDDCE70126EAE70326E8E74A
:1013B4006FF08500D6E76FF01500D3E76FF00F00EC
:1013C400D0E700BFF331000838B50369044658601C
:1013D4000A4D284602F059F860B1AB6861681B6891
:1013E4000C3123B12846984700EAE07038BD6FF00D
:1013F4005700F9E76FF01200F8E700BFE83700087C
:101404002DE9F0471E4F044600EBC1060025B44207
:1014140001D1002014E02068C30600F01F0911D494
:10142400656845F02005C0F3481AC0F3442010282D
:1014340023D857F82080B8F1000F0DD16FF01200B7
:10144400BDE8F087B9F1100F04D0B9F1110FEAD15A
:101454006568E8E73025E6E7404602F016F800281C
:10146400ECD04B462A460AF00F01404601F0D5FE67
:10147400002804F10804CADAE2E76FF01500DFE798
:10148400A43D0008F8B503690C465E6823794168F9
:10149400012B34D09A1E55425541AD026279022A7D
:1014A4009CBF354F37F812C0A27988BF4FF4005C57
:1014B400042A27D0003B18BF01231B03E279012A29
:1014C4000A680CBF4FF440770027A642D1681CD1AC
:1014D40021F4B05129430B43D360136923F44053DF
:1014E40043EA0C03136143681A68536923F4407395
:1014F4003B4353613168BDE8F84001F029BF4FF424
:10150400C065CBE74FF48053D8E701F4C0618D4246
:101514001FBFD16821F4C0612943D16042681168BA
:101524000A6902F4405294451FBF0A6922F44052EA
:1015340042EA0C020A6142681168CA6802F48052E5
:1015440093421FBFCA6822F480521343CB6043689E
:101554001A68536903F440739F421FBF536923F40D
:1015640040733B43536121683368994203D001F0CF
:10157400EFFE23683360F8BD503E00082DE9F041CA
:1015840043681C680369D3F804800B790D46012B6A
:101594004979AE7940D1022959D9042E54D04FF457
:1015A40080574FF4C06203238B424DD1002F00F0CB
:1015B4008680002A14BF03220422B24244D1EB796C
:1015C400C3B1012B40D1404B9C4213D0A3F54C43F3
:1015D4009C420FD003F580639C420BD003F58063DB
:1015E4009C4207D003F580639C4203D003F5444337
:1015F4009C4229D1E36823F40053E3602946FFF7B2
:1016040041FFE36843F40053E36095E8030088E88E
:1016140003000020BDE8F081022B08D1022921D962
:10162400042E11D04FF480624FF48057BBE7022997
:101634000A461FD9042E04D133B94FF480571A46F1
:10164400B1E763BB0329B8D06FF08500E2E71F4A16
:10165400042E32F811C0F7D04FF4C062033B012BC3
:1016640010D8F1E7194A042E32F811C0ECD04FF427
:101674008062F3E7154A042E32F811C016D1002B0C
:10168400E2D11A464FF48057BCF5805F13D0BCF505
:10169400405F12D0BCF1000F85D1012384E7033BE6
:1016A400012BD1D90022BFE70022D7E7002BFBD1C1
:1016B4001A461F46E8E7002376E7022374E7002A68
:1016C40014BF0222032278E700100140503E0008B4
:1016D400F7B50669446805462948306001F0D5FE2F
:1016E40018B96FF0120003B0F0BD3068E168836888
:1016F4001B68002B40D098470028F4DB206A01AA1D
:10170400002101F0A2FD0028EDDB019B00221979E4
:101714001868FFF775FE0028E5DB6E682B693468EE
:101724005F68E36823F40053E360706801F0ADFE82
:101734000028D6D0D6E901018368DB6803B1984755
:1017440004F10C0353E8003F43F00C0304F10C01D3
:1017540041E80032002AF3D139462846FFF792FEC9
:10176400337D1BB1636943F008036361E36843F4A9
:101774000053E3600020B6E76FF05700B3E700BF03
:10178400E837000810B54FF0E0230F499C691A6947
:1017940008689B690D4902F4803234B993B9034651
:1017A4004AB90A681044C01A10BD002B08BF03468A
:1017B4000AB9A342F5D90A6802440A604FF0E0224C
:1017C4001269EEE70446F3E75403002050030020B7
:1017D4000A4B102283F82320094B4FF416521A6047
:1017E400084B002018604FF0E02342F27F525A6108
:1017F40098611A6942F007021A61704700ED00E02F
:101804005403002050030020684620F007018D4651
:1018140019B5FFF7B7FF114B1149D3E90042086826
:10182400001942F10002C3E900020E4A00230B60D2
:10183400D2E900414FF41653001BB0FBF3F04343CD
:101844001B1941F10001C2E9003100F049FFFEF724
:10185400E3FEBDE819408546704700BF68000020DC
:1018640050030020600000202DE9F041DFF8DC8007
:1018740099B1421C0BD14FF0E022136923F001030C
:1018840013614FF07F43C8F80030BDE8F081D8F809
:101894000060012807DC00270BE0431CD8F8006037
:1018A400F7D140F2D26040F2D3639842A8BF184601
:1018B400471EEFF31185102383F31288BFF36F8F54
:1018C400FFF760FF224C4FF0E0239969D4E900232D
:1018D400801843F10003C4E900031E4B00221A6080
:1018E4001D4B1A68831A2ED44FF4165C0CFB073375
:1018F40003F515533F33B3FBFCF7131A0CFB073303
:10190400B3F5806F154A38BF4FF48063934228BF04
:1019140013464FF0E022C8F80030013B9069536150
:10192400002393618142A1EB0003D4E9001238BF84
:101934009B195B1842F10002C4E9003285F3118857
:10194400BFF36F8FA1E74FF48063E2E754030020F5
:1019540068000020500300206000002000C3FF0046
:1019640038B5EFF31185102383F31288BFF36F8F1B
:10197400084B1C68084B1B68E41AFFF703FF85F348
:101984001188BFF36F8F4FF416532044B0FBF3F06C
:1019940038BD00BF680000206000002008B5204961
:1019A4008B6803F00C03082B07D00C2B20D01D48A8
:1019B4001D4A042B18BF104608BD4A684B68496885
:1019C40013F4800314BF17481748C1F3881118BFD4
:1019D400002302F03F02A1FB0001FEF7F1FB104BD4
:1019E4005B68C3F3014301335B00B0FBF3F0E3E74F
:1019F4004A684B68496813F4800314BF09480A48CD
:101A0400C1F3881118BF002302F03F02A1FB0001BB
:101A1400FEF7D6FB024B5B68C3F30273E5E700BF36
:101A24000038024000127A000024F400002800F07C
:101A3400CC80674B1A6802F44042B2F5404F51D152
:101A440002F10F6202F58C52904211D91A6802F425
:101A54004042B2F5004F51D105235D4A126802F4A9
:101A64004042B2F5804F74D1012B38BF012370E09E
:101A7400584A904208D91A6802F44042B2F5004F1D
:101A840040F095800423E8E75349884219D8534A23
:101A940090421ED8524A904252D91B6803F44043E4
:101AA400B3F5004F4FF001033AD0494A126802F4EB
:101AB4004042B2F5804F4CD18842D5D8474A904233
:101AC4003CE01A6802F44042B2F5004F53D00323BD
:101AD400EBE71A681B6803F44043B3F5804F4FF0FB
:101AE4000203C0E71A6802F44042B2F5004F4DD138
:101AF40002F10F6202F5A342904207D91B6803F476
:101B04004043B3F5804F4FF00503ACE7314A9042B0
:101B14004DD8314A90422ED8304A9042DAD8002328
:101B24002F4A904213D92A4B1B6803F44043B3F560
:101B3400804F46D1294B98424FF0010333D993E7A4
:101B44001A6802F44042B2F5004F1CD10023204A27
:101B5400126824490A6822F00F021A430A600A68CC
:101B640002F00F0293421CBF0A6802F00F02981A97
:101B740018BF012070471B6803F44043B3F5804F3E
:101B84004FF003036FE71B680023E2E71B6803F4CD
:101B94004043B3F5804FF7D10F4B98420FD80F4B0A
:101BA400984210D800230E4A9042D2D95CE71B68B1
:101BB40003F44043B3F5804F4FF0040353E703238A
:101BC40052E70123C5E70223C3E70120704700BFA2
:101BD40000700040000E2707804A5D0500879303CC
:101BE40080C3C901003C024038B5EFF311851023CE
:101BF40083F31288BFF36F8F064B9C6801F058FC87
:101C040085F31188BFF36F8F2046BDE83840FEF797
:101C140087BE00BF5803002038B50A4B53F8204054
:101C2400013053F82050A54200D838BD606830B167
:101C3400037FDB0701D401F03EFC0834F3E723689B
:101C44009847FAE7383E000870B52A4B2A4C2B4DCA
:101C5400012286B003201A70FFF7DEFF00F0B8FD02
:101C64000420FFF7D9FF2646AE4204F1300410D316
:101C740000F040FA204C224EAC4226D300F04EFA3B
:101C8400FEF708FC1F4A137B23F00103137306B00D
:101C940070BD54F80C3C059354F8103C049354F86C
:101CA400143C039354F8183C029354F81C3C0193DD
:101CB40054F8203C009354E90A2354E90C0100F041
:101CC400CFF854F8303C5E65CDE7D4E90A23B3F18C
:101CD400FF3F08BFB2F1FF3F05D052EA030120687D
:101CE40003D100F0D7FA3034C6E73146183000F09B
:101CF40067FCF8E785030020703C0008703C00088E
:101D040083350008F000002008B50348034A002189
:101D1400121A01F0E7FB08BD6000002088030020D0
:101D240070B5002386B00122CDE90423134E144D6F
:101D340001930F22CDE902321249142303FB00550B
:101D440006EBC01604464FF4C07000FB04110E4BA2
:101D540000954FF4A072304600F082F8737B0B4A72
:101D6400EE6023F0040373734FF4046304FB033342
:101D740013442C746B6006B070BD00BF700000206B
:101D840058030020000C0020F1340008C003002098
:101D9400BFB50020FFF740FF294B83F30888294C87
:101DA400294F636943F4007363610025F02384F8C9
:101DB4002230E57725766576A57684F82050636A27
:101DC40043F4E0236362FEF77BFDFEF7A1FE4FF0D0
:101DD400FF33A362E362FEF761FFFEF7BDFE1B481B
:101DE4001B4C00F089F801F04FFBFEF7D3FB0120F8
:101DF400FFF712FF0220FFF70FFF00F0C3F9154BA6
:101E040015495C61154B05930123CDE903534FF448
:101E140080623B46CDE901550095204600F020F84C
:101E2400627B064622F004022046627301F07BFBCB
:101E34002846FFF775FF3A4631462046FEF74AFE2C
:101E4400000C002000ED00E04D1C00087001002093
:101E5400F000002058030020800D0020573F0008A8
:101E64002DE9F043073285B022F007020E461F46E3
:101E74001099017300F158037F32C0E91633044608
:101E8400002322F03F020421836041733F2A0F980C
:101E9400A073C4E90633E37306F14009A2F14008D4
:101EA40005D883F31188BFF36F8F084602DFB51896
:101EB40029462046FEF790FB07300E9B20F00700D2
:101EC400A066C4E9189802930D9B01932D1A0C9BEC
:101ED40000932A463B4631462046FEF7C9FD0023BF
:101EE4006365044B9B6803B1DB6EE366284605B06B
:101EF400BDE8F0835803002040F2011383810023DE
:101F0400C0E91833C366014B98607047580300203A
:101F1400094A93686FF00A019967084958674B6842
:101F240043F080534B60002383F31188BFF36F8F1A
:101F34009368986F704700BF5803002000ED00E0DD
:101F440070B590F90D20437B002A36DBD90634D1D5
:101F54001B4C63F07F032246437352F8183FE16938
:101F6400934207D1C0E900210860E06111E0994281
:101F7400F8D01B68002BF5D090F90E5093F90E6041
:101F8400B542F4D0AE42F2DD5968C0E900310860D0
:101F94005860A569954200D005B9E568A3685A7BE5
:101FA400D20604D1DA897F2A01D9AA6932B1AB42B7
:101FB40002D0284600F062FA656170BD6361FCE7F7
:101FC4005803002038B590F90D20437B002A0146C0
:101FD40004DA03F07F03437301F093FA0D4D2A46AC
:101FE400AB6852F8184F944200D004B9EC688B42A5
:101FF40007D05A7BD20604D1DA897F2A01D9A26993
:102004002AB1A34202D0204600F038FA23466B617D
:1020140038BD00BF5803002070B590F90D20437BF4
:10202400002A014604DA03F07F03437301F069FADE
:102034004B7B1C4C63F07F0322464B7352F8183FD2
:10204400E069934207D1C1E900200160E16111E038
:102054009842F8D01B68002BF5D091F90E5093F9F3
:102064000E60B542F4D0AE42F2DD5868C1E90030EA
:1020740001605960A569A368954200D005B9E56877
:102084008B4207D05A7BD20604D1DA897F2A01D940
:10209400AA692AB1AB4202D0284600F0EFF92B46D8
:1020A400636170BD5803002049B9EFF3058030B96E
:1020B400054B5A699B689A4201D0FFF729BF81F307
:1020C4001188BFF36F8F704758030020034648B947
:1020D400EFF3058232B9064A51699268914201D000
:1020E400FFF716BF83F31188BFF36F8F704700BFEC
:1020F40058030020EFF31181102383F31288BFF3F8
:102104006F8F054B9A68D37B013BD37381F311889E
:10211400BFF36F8F704700BF5803002070B5EFF313
:102124001186102383F31288BFF36F8F144DAB68AD
:10213400DA7B0132DA732A4652F8184F944200D0FF
:1021440004B9EC685A7BD20604D1DA897F2A01D912
:10215400A2692AB1A34202D0204600F08FF9234697
:102164006B6186F31188BFF36F8FEFF31180102337
:1021740083F31288BFF36F8FBDE87040FFF7A6BFEB
:1021840058030020024B03F11802C3E906227047EA
:102194005803002070B5EFF31186102383F31288DF
:1021A400BFF36F8F1B4CA168E0690B68814214BFB9
:1021B4001A46002249680B605960A368E1692AB98C
:1021C400154AC3E900210B60E3610CE093F90E00AA
:1021D40092F90E50A84218D0854216DD5168C3E921
:1021E40000210B605360A5690B4B9D4200D005B9DB
:1021F400E568A3689D4202D0284600F03FF9656176
:102204003046BDE87040FFF783BE8A42D8D01268DA
:10221400D5E700BF5803002070030020F8B550EA4A
:10222400010306460C4603D1FFF7B4FF0020F8BDB6
:10223400EFF31187102383F31288BFF36F8F124DCE
:10224400124BA8681860FFF7BDFEA8681049234622
:102254003246183000F0B4F9AA68537B43F0040303
:10226400537304463846FFF753FEAB68D3E90A2399
:10227400B3F1004F08BF002AD8D101F0EBF9201ABE
:1022840020EAE070D3E700BF580300207803002061
:102294008335000838B50446EFF31185102383F322
:1022A4001288BFF36F8F437B5B070FD5183001F0A3
:1022B400A9F9637B23F0040320466373FFF740FE10
:1022C40029460548BDE83840FFF7EEBE85F311887E
:1022D400BFF36F8F38BD00BF86030020014B9868A1
:1022E400704700BF580300202DE9F8430446077BDC
:1022F400EFF31185102383F31288BFF36F8F437BB1
:10230400190705D585F31188BFF36F8FBDE8F883EE
:10231400D90943F008025AD14273A36813B1204685
:1023240001F0F7F804F1180001F06CF9A66D04F15E
:102334005808B04511D04FF0000976B1304601F08D
:10234400E8F806F1180001F05DF9C6F87890304617
:10235400FFF7F6FDA66DB045EFD1DFF8B880D8F8E9
:1023640008309C423BD1EFF30589B9F1000918BF4D
:102374004FF00109D8F81860274A964200D00EB9E8
:10238400D8F80C60B34202D0304600F077F8C8F8B1
:102394001460B9F1000F02D02048FFF7ADFDD8F862
:1023A40008309C4231D1EFF3058373BB227BD20703
:1023B40018D42846FFF7ACFDFB07A7D5002383F309
:1023C4001188BFF36F8F0423184602DF9EE703F0E2
:1023D4007F0343F00803437301F093F89DE74FF044
:1023E4000009C7E785F31188BFF36F8F83F3118862
:1023F400BFF36F8F0423184602DFEFF3118010231D
:1024040083F31288BFF36F8FD4E785F31188BFF38A
:102414006F8FD1E758030020700300207001002063
:10242400044BC01A044BC0105843044B01221A54E5
:10243400704700BFF0010020ABAAAAAA86030020BF
:10244400C3897F2B12D80A4B1B6863B1094B90F9DF
:102454000E201B689A4209DB437BDB0606D1064B40
:10246400C31A18BF012303F0010070470023FAE7E1
:10247400280000207C0300207000002070B50E4B63
:102484000E4C1E7C06EB460304EBC30405462046B3
:1024940001F0B8F80A4B002228469A55FFF7D0FFFE
:1024A40048B1084B08491A68013A2046D317BDE8D9
:1024B400704000F085B870BD58030020F001002082
:1024C40086030020280000202524000838B5EFF3F7
:1024D4001185102383F31288BFF36F8F104B114AB9
:1024E4009C681068A04206D1FFF7C8FF85F31188E5
:1024F400BFF36F8F38BD00211B7C11600A4AD35C87
:10250400002BF3D02046FFF79BFF0028EED0637B1F
:10251400DB0602D12046FFF77FFD2046E4E700BF3B
:102524005803002078030020860300200748084A47
:10253400084908B5121A00F0D7FF0748074A0849A6
:10254400BDE80840121A00F0CFBF00BF0000002011
:102554005C000020943F00080000002000000020E0
:10256400943F0008024B1868984208BF0020704747
:102574002C000020034B1B680BB9FFF7F1B90020B6
:10258400704700BF8003002030B570B10B4B5B680F
:1025940098420AD0036843B1D3E90421D0E9044541
:1025A400121941EB0501C3E90421D0E9003213609B
:1025B4005A600023C0E9003330BD00BF2C00002066
:1025C400B3F1FF3F08BFB2F1FF3F2DE9F84F0446D6
:1025D400994615461F467AD08160EFF3118810237F
:1025E40083F31288BFF36F8FB9F1000FDFF8E4A013
:1025F40020DBFFF7BFFFDAE90027013549F10009C5
:102604002D1849EBE073C4E90453AD18064643EBB7
:1026140007074FF00109FFF7A5FFDFF8BCE0DEF87C
:1026240004A00346EBB9C4E900EACAF80040CEF8B6
:10263400044028E0DAE900126FF001035B1A4FF05E
:10264400FF3161EB02025B1B62EB0902012B72F1A9
:102654000001BCBF01230022C0E904324FF000098D
:10266400D9E7D3E9041CD4E904208A4270EB0C0BAB
:1026740024DA891A5A686CEB0000C3E90410C4E92F
:10268400003214605C60FFF76DFF84420ED1134B7F
:102694001B685BB9B9F1000F02D1FFF76BFF064667
:1026A400304600F098FF0021FFF7DEF888F3118828
:1026B400BFF36F8F28463946BDE8F88F521A60EB96
:1026C4000C009A45C4E90420ADD01B68AAE7002594
:1026D4002F46EFE7080200202C0000208003002092
:1026E4002DE9F047EFF31185102383F31288BFF32C
:1026F4006F8FDFF8A490DFF8A480C9F80000FFF71B
:1027040031FF00260027D9F80030D8E900ECD917AA
:1027140050B1D0E90442A34271EB020A1CDAE41A74
:1027240062EB0102C0E9044213EB0E034FF0000414
:102734004CEB01012046C8E90031C9F8004000F023
:102744004AFF2146FFF790F885F31188BFF36F8F96
:10275400BDE8F047FFF7BABE14EB0E024CEBE4738E
:10276400C0E90467C8E90023FFF70EFF85F3118869
:10277400BFF36F8F83689847EFF31185102383F3BA
:102784001288BFF36F8FD9F800301B1BC9F80030D3
:10279400FFF7E8FEB7E700BF80030020080200202F
:1027A40010B5EFF31184102383F31288BFF36F8FF6
:1027B400FFF7E0FE054A0346D2E90001181841EB91
:1027C400E37184F31188BFF36F8F10BD08020020FA
:1027D400014800F0DDBA00BF5C3F00080FB407B544
:1027E400064B04AA186852F8041B019200F008F87A
:1027F40003B05DF804EB04B0704700BF003D00086F
:102804002DE9F04F8DB043680293837815469A07FB
:10281400804640F10D8100240E78002E00F00A81DC
:10282400252E0BD04B1C03930134029B41463046AA
:1028340098470028C0F2F6800399EDE74E788B1C88
:10284400252E0393F0D00027B946BB46BBF11F0FDA
:1028540038D8A6F12003102B0AD8DFE803F02A09A0
:1028640009300909092109090928092D09091F0045
:10287400A6F13003092B33D92A2E37D11BF0400F90
:1028840055F8043B40F08280002BA7BF4BF0200B8F
:102894009946C3F100094BF0280B01E04BF0010B02
:1028A400039B13F8016B0393002ECFD130E04BF060
:1028B400020B4BF0040BF3E74BF0080BF0E74BF083
:1028C400100BEDE7BBF17F0F19D8A6F13003092BEC
:1028D400D2D81BF0400F03D00A2101FB0737DFE7F2
:1028E4000A2101FB09394BF0200BD9E72E2E06D122
:1028F4001BF0400F40F09E804BF0400BD0E76C2E55
:1029040031D02BD8682E36D06A2E3CD04C2E3AD0FB
:10291400002F46F02003B8BF2BF04002A3F165015D
:10292400BCBF1FFA82FB0027022901D9612B2FD1DA
:10293400073525F00705DFF8ACA2083507271BF09B
:10294400080F66D00AEB070B56465E4563D1A4EB2D
:102954000A0A06EB0A02A9EB07096FE1742E9FD05D
:102964007A2E9DD0D4E71BF0800F18BF4BF4007B68
:102974004BF0800B94E71BF4807F18BF4BF4007B73
:102984004BF4807B8CE74BF4207B89E71F4687E779
:10299400A6F16301122900F2F080DFE811F01300C0
:1029A4004F00EE00EE00EE00EE004F00EE00EE00F1
:1029B400EE00EE00EE00FE00E900EE00EE001B006B
:1029C400EE00AF0055F8043B8DF8183001270DF1E7
:1029D400180AB4E755F804AB834BBAF1000F08BFEB
:1029E4009A461BF0400F14BF39464FF0FF31504652
:1029F40000F04AFE0746A2E7029B41462020984782
:102A040000280FDB013EB742F6D34C44A41BB14669
:102A140098E74E46F7E716F8010B029B41469847A4
:102A2400002892DA98F8023043F0040388F8023060
:102A34004FF0FF3420460DB0BDE8F08F1BF0800F3F
:102A440034D01BF4007F2CD0073525F00705AA46A7
:102A540069685AF8080B2BF010050029ADB237DA73
:102A6400404261EB410145F480650DF1180B0A23E6
:102A74005A4600F015FEA0EB0B0301936B0662D5DA
:102A8400019B25F001019F4289B240F3A180002EF1
:102A940000F0998015F0100240F09C80BB460D4672
:102AA40023E0AA465AF8040BC117D4E7AA461BF43C
:102AB400807F5AF8041B01D10846F5E71BF4007F18
:102AC40015BF48B208B241F3C01141F3C031C2E7A7
:102AD40050EA0103C9D11BF0400FC6D0002FC4D166
:102AE4002BF0110295B2BB46019740F2064115EA5C
:102AF40001021CBF0BF1010B00222CE02BF0100291
:102B04001FFA82FB0A231BF0800C49D01BF40071CE
:102B14001DBF073525F00705AA46AA461ABF5AF86D
:102B2400080B69685AF8040B50EA010545D12BF0EB
:102B340016051BF0400FADB242D0002F40D12BF050
:102B4400170295B2019715F0100248D0019B002E90
:102B540042D103F1010B29075AD4EB0706D5D94515
:102B64006FDD0199A9EB0B035F18CB465B4649E087
:102B74004BF0100B10237826C5E7782B04D1C6F14F
:102B8400780343F01003BEE7029B41462520984793
:102B94000028FFF647AF023447E608230026B2E7D1
:102BA400AA461BF480715AF8040BBDD01BF40071C3
:102BB4001ABFC0B2614680B2B6E72BF0060295B2E6
:102BC4000DF1180B54E725F01105ADB2BB468CE7A7
:102BD4000D46B8E73B460D4603F1020BBBE7DDF8B3
:102BE40004B082E78B3F0008843F0008CDE904323B
:102BF4004146029B202098470028FFF613AF049B10
:102C0400059A01339945F1DCA4EB0B01CC189B46E2
:102C14000AB3029B4146302098470028FFF602AFD2
:102C24008EB901342744019B391B994224DC1D468B
:102C34005DBB019AA9EB0B09224455461446914405
:102C440035E0019F92E7023441463046029B9847A3
:102C54000028E7DAE6E640F206410D42E2D015F03C
:102C6400020F14BF2B20202015F4806F04F10104FF
:102C7400414618BF2D20E9E7029B41463020984782
:102C8400002804F10104CEDACCE606AB013D41464E
:102C9400585D029B98470028CADAC3E6029B414666
:102CA40020209847002804F10104FFF6BBAEA9EBED
:102CB4000403002BF2DCBFE5704700EBC100408841
:102CC40040087047F8B50346FFF7F7FFB0FA80F005
:102CD400C0F11F0003EB800CCA00DCF81060171D64
:102CE4000C4606328DB256B9012101FA00F0D968BA
:102CF4000143D960CCF81040DD539D52F8BDF1007A
:102D04000431585AD85303EBC0009E52C5805D521B
:102D1400F4E7043A2DE9F041CC1D114424F00704F2
:102D240021F007010E1BF708B7FA87F2C2F1240558
:102D3400AD004FF000080735C2F12002ED08046031
:102D44004146A760C4F80C80920004F1100000F022
:102D540093FC6B0043F00103638004EBC5027B1B0F
:102D64005900A4F800805180A21924F83550A2F823
:102D74000280A35304EBC70329465A8842F0010298
:102D84005A802046BDE8F041FFF79CBF0020704701
:102D94000FB407B504A951F8040B0191FDF7BEFB6C
:102DA40003B05DF804EB04B070477047012801D10B
:102DB400EFF30583FEF718BF01460068FFF7F6BF7F
:102DC40008B5FDF705FCBDE80840FDF725BC00216A
:102DD4000120FFF7EBBF61B662B680F31188BFF341
:102DE4006F8F704772B6002383F31188BFF36F8F20
:102DF400BFF34F8F30BF62B6BFF36F8F7047202889
:102E040009D9B0F1004F08D80138B0FA80F0C0F108
:102E14001F0040007047082070473E20704708B5E7
:102E2400FDF7F0FF002008BD01208840704700F046
:102E34000302043292000F23934043EA900010B53A
:102E4400C3B29B0003F1804303F59C33020C9C68DE
:102E540092FAA2F2B2FA82F224EA104091400143BB
:102E6400996010BD0B88C3F30B0303F57D62C2F3B5
:102E74000B02782A82B014D803F1804303F50E3391
:102E840048681A6802431A600B88C3F30B0303F102
:102E9400804303F50E3300201B680193019B02B0AD
:102EA40070476FF08500FAE70B88C3F30B0303F553
:102EB4007D62C2F30B02782A9FBF03F1804303F5BE
:102EC4000E3349681A689DBF8A4300201A606FF068
:102ED40085007047072808D8EA23C34013F0010F80
:102EE40014BF00206FF0850070476FF085007047B5
:102EF40010B50888C0F30B00FFF7ECFF00281FDBB8
:102F04004A68FF2A1BD093B203F1804303F50E33C2
:102F1400C2F384541868C2F3054204FA02F220EAA8
:102F240002021A6049688BB203F1804303F50E3341
:102F3400CA0E1868C1F305418A4002431A60002092
:102F440010BD0888C0F30B0008B500F57D63C3F31A
:102F54000B03782B0AD800F1804000F50E304B6843
:102F64000268934314BF0120022008BDFFF7B2FF9B
:102F7400002814BF01200220F7E7704743685B680C
:102F84001B690B600020704743685B6858694240C6
:102F94000A4042405A610020704743685B68002041
:102FA4009961704743685B68090499610020704720
:102FB40043685A6853694B4053610020704710B509
:102FC40003699868F8B1884219D1DC680868986088
:102FD400A14200D1D860002008602AB19A680A6032
:102FE400DA68996002B9D960002010E0814206D104
:102FF40008682060D8688142EDD1DC60EBE70446C4
:1030040000680028F2D1002AE8D16FF0150010BD45
:10301400F0B544680120676888401E46C2F38013F7
:1030240027EA00078B403B43636090FAA0F7B7FAA6
:1030340087F7D4F808C04FF0030E7F000EFA07F7A5
:103044002CEA070C90FAA0F7B7FA87F7C2F3C1137A
:103054007F00BB4043EA0C03A36090FAA0F3B3FAE9
:1030640083F3E7685B000EFA03F327EA030790FA99
:10307400A0F3B3FA83F302F030055B00C2F34122FC
:103084009A403A43202DE26016D107292BD890FAB2
:10309400A0F3226A2BB3B3FA83F39B000F2101FA46
:1030A40003F322EA030290FAA0F3B3FA83F39B003A
:1030B40006FA03F31343236290FAA0F3B3FA83F3FB
:1030C400226890FAA0F05B000321B0FA80F02D0989
:1030D40001FA03F3400022EA030385401D432560FF
:1030E400F0BD2B46D9E7030A616A93FAA3F282B1D1
:1030F400B2FA82F292000F2793FAA3F3B3FA83F39E
:1031040007FA02F29B0021EA02029E40164366621D
:10311400D2E72A46EEE712F4003CF8B505460C4621
:1031240013461DD0960714D550075DD55022D906F5
:1031340011D542F4007203F4C061B1F5806F42D03E
:10314400B1F5C06F19D0B1F5007F18D142F08002FB
:1031540015E01022EBE79F06EDD542F48062EAE722
:10316400D60305D5D00605D4C2F340129202E2E795
:103174003022E0E74FF40072DDE742F4C07213F44A
:1031840040372E6908D0306920FA04F1C9075FBFBF
:103194000121A14001433161BCF1000F06D01803A5
:1031A40014D5696801234968A3408B6168680023CA
:1031B4002146FFF72DFF27B9336923FA04F2D2071A
:1031C4000CD40020F8BD42F48072D8E75903EDD541
:1031D4000121A1402846FFF7E5FEE7E70122A240CE
:1031E40023EA02033361ECE76FF08500EAE770B588
:1031F4000B468968054611B15E680C6801B970BD5B
:103204008A682A4002D04B68304698471CB123682C
:1032140021461C46F2E72346FAE7F8B51F46044662
:1032240040680E461546FFF7F3FE112F07D1012122
:103234002B0501FA06F104D563685B6899610020E7
:10324400F8BD2046FFF7AEFEF9E730B5036813601A
:103254000579046804EBC504A34202D36FF00100AE
:1032640030BD5C798C4201D00833F0E70020F7E7E9
:103274004368C1F34B101B6801F01F01C0580123C0
:103284008B40034214BF01230023137000207047B6
:1032940010B54368C1F34B101A6801F01F0184583C
:1032A40001238B4023438350002010BD10B5436895
:1032B400C1F34B14186801F01F01235801228A40FE
:1032C40023EA02032350002010BD38B504460D46FE
:1032D400FFF7DEFF29462046FFF7E8FF002038BD50
:1032E40082B003680193019B43680193019B02B080
:1032F400704708B54368186802680368D90703680B
:10330400C2F3C00248BF42F002029B07036848BFF1
:1033140042F004025907036848BF42F02002DB056B
:1033240042BF6FF4807342F008020360D10701D5F5
:10333400FFF7D6FF930701D5FFF7D2FF510701D559
:10334400FFF7CEFF930601D5FFF7CAFF104608BD6D
:1033540037B50269436810681C680D46D9688368EC
:10336400DB68E3B101AA9847002818DBE3680198F9
:1033740023F400431921E360AA00AB0FA0FB010171
:10338400FCF71EFF6422B0FBF2F102FB11031B01E8
:103394003233B3FBF2F303EB01139BB2A36003B02C
:1033A40030BD10B543681B6810201A681206FCD59E
:1033B400EFF3118280F31288BFF36F8F1C68240629
:1033C40004D482F31188BFF36F8FEEE7596082F360
:1033D4001188BFF36F8F10BD08B543681868036880
:1033E4001A0701D5FFF77CFF03689B0643BF4368B8
:1033F4000B7000204FF0FF3008BD03695B681B6849
:103404000B6043681B68DB6803F4C063B3F5806F2B
:103414002FD0A3F5C06CDCF1000343EB0C030B715C
:1034240043681B681B6903F44053B3F5805F22D0E3
:10343400B3F5405F21D0002B0CBF012303234B7154
:1034440043681B68DA68DB68D20403F4C06316D5EA
:10345400002B14BF032304238B7143681B685B692F
:1034640003F44073A3F5407253425341CB710020DF
:1034740070470223D3E70023E1E70223DFE7002BB1
:1034840014BF02230323E7E7704740B1C3685878A9
:1034940010F001001EBF1878B0FA80F040097047A0
:1034A400EFF31183102383F31288BFF36F8FFEE7CA
:1034B40008B5FFF7F5FF10B54369044633B900209A
:1034C400E268537843F00103537010BD9847002815
:1034D400F5D00028B8BF4042E368FF28A8BFFF200A
:1034E4001870EDE700F0C8B800F0B8B808B51024BB
:1034F400EFF3118384F31288BFF36F8FFFF772FC2D
:10350400F6E7D0E9003213605A600023C0E90033C3
:10351400704708B5FFF7F5FF437B23F002034373BD
:103524000023836008BD10B5EFF31184102383F3E7
:103534001288BFF36F8FFEF703FD84F31188BFF386
:103544006F8F10BD10B50146EFF31184102383F380
:103554001288BFF36F8F437B13F0280F0AD183685F
:103564000BB1FFF7D6FF4B7B23F004034B730846E4
:10357400FEF7E6FC84F31188BFF36F8F10BD0121C1
:103584001838FFF7DFBF38B504460D46FEF746FE90
:10359400B5F1FF3F08BFB4F1FF3F0346204614D006
:1035A40013F109004FEAE37141F100010A2871F1B6
:1035B40000030BD36FF00A0383424FF004038B41E3
:1035C40006D30A220023FCF7FBFD38BD0020FCE7EC
:1035D4006FF00040F9E708B50246FEF7C3FF70B18B
:1035E400D0E904319B1A61EBE272B3F1004F72F13E
:1035F400000104DA002AACBF1846002008BD6FF0B1
:103604000040FBE738B50246EFF31185102383F33E
:103614001288BFF36F8F0368CBB1FEF7A3FF044694
:103624001046FEF7B1FF00224FF000438442C0E988
:10363400042306D1FEF79EFFFFF7CDFF0021FEF71E
:1036440013F9002085F31188BFF36F8F38BD6FF035
:103654001500F7E708B5FFF7A3F808BD0A4491423F
:1036640000F1FF3300D1704710B511F8014B03F896
:10367400014F9142F9D110BD02440346934200D157
:10368400704703F8011BF9E710B5024601448A426A
:10369400134603D01C780132002CF8D1181A10BD3F
:1036A400F0B5C3F137070446FFB203F01F03104619
:1036B400082BE6B233D0102B3ED06508A40844EAA8
:1036C400817445EAC1752D194FEA910242EB51020A
:1036D400290941EA02716D1842EB1212290A41EAE2
:1036E40002616D1842EB1222290C41EA02416D1865
:1036F40042EB1242AD1842F10002EC0844EA427473
:10370400D10804EB8402A6EB4205EDB2092D0CD9D5
:103714000134A5F10A0541F10001EDB212E0E4081B
:1037240044EA417406F00705C908303554EA010239
:1037340000F8015BBCD1F0BD240944EA017406F031
:103744000F050909092D84BFED19EDB2EDE700005D
:0C375400014800687047000010020020CF
:0837600098CAFF7F0100000080
:1037680000000000E8370008850500080000000098
:10377800000000000838000800000000E8380008D1
:103788000000000028390008000000002838000860
:10379800000000000839000800000000C8380008D0
:1037A80000000000A8380008000000008838000861
:1037B80000000000683800080000000048380008D1
:1037C8000000000048390008CD1200080000000081
:1037D800D517000800000000310E000800000000A6
:1037E800A93E000800000000A43C00084600002094
:1037F800000000003911000800000000000000006F
:10380800263F0008E83D0008943C000858000020C6
:1038180000000000000000000000000000000000A0
:103828008B3E00080000000000000000440000205B
:1038380030020020BD0E000800000000000000005B
:10384800B63E0008043D0008703C0008480000200F
:10385800B0020020CD1300080000000000000000A6
:10386800C43E0008183D0008703C00084A000020CB
:10387800C4020020CD130008000000000000000072
:10388800D23E00082C3D0008703C00084C00002087
:10389800D8020020CD13000800000000000000003E
:1038A800E03E0008403D0008703C00084E00002043
:1038B800EC020020CD13000800000000000000000A
:1038C800EE3E0008543D0008703C000850000020FF
:1038D80000030020CD1300080000000000000000D5
:1038E800FC3E0008683D0008703C000852000020BB
:1038F80014030020CD1300080000000000000000A1
:103908000A3F00087C3D0008703C00085400002075
:1039180028030020CD13000800000000000000006C
:10392800183F0008903D0008703C00085600002031
:103938003C030020CD130008000000000000000038
:10394800373F0008EC3D0008C03C00085A00002042
:1039580014000020D5160008000000000000000038
:1039680000000000D32D000800000000D32D00083F
:1039780000000000D32D000800000000D32D00082F
:1039880000000000D32D000800000000D32D00081F
:10399800893E0008550E0008873E0008550E0008AD
:1039A800853E0008550E0008833E0008550E0008A5
:1039B800813E0008550E000800000000D32D0008C5
:1039C80000000000D32D000800000000D32D0008DF
:1039D80000000000D32D000800000000D32D0008CF
:1039E80000000000D32D000800000000D32D0008BF
:1039F80000000000D32D000800000000D32D0008AF
:103A080000000000D32D000800000000D32D00089E
:103A180000000000D32D00087F3E0008550E000866
:103A280000000000D32D000800000000D32D00087E
:103A380000000000D32D000800000000D32D00086E
:103A480000000000D32D000800000000D32D00085E
:103A580000000000D32D000800000000D32D00084E
:103A680000000000D32D000800000000D32D00083E
:103A780000000000D32D000800000000D32D00082E
:103A880000000000D32D000800000000D32D00081E
:103A980000000000D32D000800000000D32D00080E
:103AA8007D3E0008550E000800000000D32D0008D8
:103AB80000000000D32D000800000000D32D0008EE
:103AC80000000000D32D000800000000D32D0008DE
:103AD80000000000D32D000800000000D32D0008CE
:103AE80000000000D32D000800000000D32D0008BE
:103AF80000000000D32D000800000000D32D0008AE
:103B080000000000D32D000800000000D32D00089D
:103B180000000000D32D000800000000D32D00088D
:103B280000000000D32D000800000000D32D00087D
:103B380000000000D32D000800000000D32D00086D
:103B480000000000D32D000800000000D32D00085D
:103B580000000000D32D000800000000D32D00084D
:103B680000000000D32D000800000000D32D00083D
:103B780000000000D32D000800000000D32D00082D
:103B880000000000D32D000800000000D32D00081D
:103B980000000000D32D000800000000D32D00080D
:103BA80000000000D32D000800000000D32D0008FD
:103BB80000000000D32D000800000000D32D0008ED
:103BC80000000000D32D000800000000D32D0008DD
:103BD80000000000D32D000800000000D32D0008CD
:103BE80000000000D32D000800000000D32D0008BD
:103BF80000000000D32D000800000000D32D0008AD
:103C080000000000D32D000800000000D32D00089C
:103C180000000000D32D000800000000D32D00088C
:103C280000000000D32D000800000000D32D00087C
:103C380000000000D32D000800000000D32D00086C
:103C480000000000D32D000800000000D32D00085C
:103C580000000000D32D000800000000D32D00084C
:083C680000000000D32D00084C
:103C70001B310008812F00088D2F00089F2F00089E
:103C8000A92F0008B52F00081D130008C32F000836
:043C90000000000030
:103C94007532000895320008B1320008CF320008AE
:103CA400692E0008AD2E00080000000091100008E5
:0C3CB400472F000800000000F52E00085B
:103CC000DD330008A7330008F7320008811500082B
:043CD000FF330008B6
:103CD400000000200000000000000B0602000000AD
:103CE400E83C0008000000086E3E000824000206BC
:103CF40000000020763E000820000B110400002084
:103D0400FFFF0000001C024007000000300000001C
:103D140080000000FFFF00000018024006000000C1
:103D24003000000040000000FFFF000000140240CB
:103D3400050000003000000020000000FFFF00002C
:103D440000100240040000003000000010000000D9
:103D5400FFFF0000000C02400300000030000000E0
:103D640008000000FFFF00000008024002000000FD
:103D74003000000004000000FFFF000000040240C7
:103D8400010000003000000002000000FFFF0000FE
:103D940000000240000000003000000001000000AC
:103DA4002839000808390008E8380008C83800082D
:103DB400A83800088838000868380008483800081F
:103DC40000000000000000000000000000000000EF
:103DD40000000000000000000000000000000000DF
:103DE4000000000000380240004400400838000889
:103DF40011040000103E0008010000000000000053
:103E04000000000000000000183E00084000000010
:103E140000000200203E000801000000283E0008C7
:103E240002000000470000000002000067000000DC
:103E3400000000006837000868370008D837000819
:103E4400E0370008E8370008E837000800100000F1
:103E540000304F4E004F4646004C454420352073F9
:103E6400746174653A2025730A00464C4153485FD7
:103E740030005352414D5F30000A0605050401032A
:103E840001020101010001696E746572727570743A
:103E94002D636F6E74726F6C6C65724034303031A8
:103EA400336330300072636340343030323338303F
:103EB40030006770696F4034303032316330300025
:103EC4006770696F40343030323138303000677099
:103ED400696F403430303231343030006770696F8C
:103EE400403430303231303030006770696F4034E4
:103EF40030303230633030006770696F40343030B6
:103F04003230383030006770696F403430303230CE
:103F1400343030006770696F4034303032303030C4
:103F2400300072657365742D636F6E74726F6C6CA0
:103F340065720073657269616C40343030303434BA
:103F440030300000000000000000000102030406FD
:103F54000708096D61696E002A2A2A20426F6F746E
:103F6400696E67205A6570687972204F53206275B4
:103F7400696C642076342E322E30202A2A2A0A00D4
:103F8400286E756C6C29002A666C6F61742A0000B7
:103F9400912D000800000000232E000800000000FE
:103FA40000000000000000001C00002000C201000E
:103FB400000103000024F400C80000002C000020CD
:103FC4002C000020FFFFFFFFFFFFFFFFFFFFFFFFAD
:043FD400FFFFFFFFED
:103FD80000000000000000000000000000000000D9
:083FE8000000000000000000D1
:043FF00015E015E0E3
:04000005080008F1F6
:00000001FF
